{
  "_format": "hh-sol-artifact-1",
  "contractName": "CertificateNFT",
  "sourceName": "contracts/CertificateNFT.sol",
  "abi": [
    {
      "inputs": [],
      "stateMutability": "nonpayable",
      "type": "constructor"
    },
    {
      "anonymous": false,
      "inputs": [
        {
          "indexed": true,
          "internalType": "address",
          "name": "owner",
          "type": "address"
        },
        {
          "indexed": true,
          "internalType": "address",
          "name": "approved",
          "type": "address"
        },
        {
          "indexed": true,
          "internalType": "uint256",
          "name": "tokenId",
          "type": "uint256"
        }
      ],
      "name": "Approval",
      "type": "event"
    },
    {
      "anonymous": false,
      "inputs": [
        {
          "indexed": true,
          "internalType": "address",
          "name": "owner",
          "type": "address"
        },
        {
          "indexed": true,
          "internalType": "address",
          "name": "operator",
          "type": "address"
        },
        {
          "indexed": false,
          "internalType": "bool",
          "name": "approved",
          "type": "bool"
        }
      ],
      "name": "ApprovalForAll",
      "type": "event"
    },
    {
      "anonymous": false,
      "inputs": [
        {
          "indexed": false,
          "internalType": "uint256",
          "name": "_fromTokenId",
          "type": "uint256"
        },
        {
          "indexed": false,
          "internalType": "uint256",
          "name": "_toTokenId",
          "type": "uint256"
        }
      ],
      "name": "BatchMetadataUpdate",
      "type": "event"
    },
    {
      "anonymous": false,
      "inputs": [
        {
          "indexed": true,
          "internalType": "uint256",
          "name": "tokenId",
          "type": "uint256"
        },
        {
          "indexed": false,
          "internalType": "string",
          "name": "kraPin",
          "type": "string"
        },
        {
          "indexed": false,
          "internalType": "string",
          "name": "sessionId",
          "type": "string"
        }
      ],
      "name": "CertificateIssued",
      "type": "event"
    },
    {
      "anonymous": false,
      "inputs": [
        {
          "indexed": true,
          "internalType": "uint256",
          "name": "tokenId",
          "type": "uint256"
        },
        {
          "indexed": false,
          "internalType": "bool",
          "name": "isValid",
          "type": "bool"
        }
      ],
      "name": "CertificateValidityChanged",
      "type": "event"
    },
    {
      "anonymous": false,
      "inputs": [
        {
          "indexed": false,
          "internalType": "uint256",
          "name": "_tokenId",
          "type": "uint256"
        }
      ],
      "name": "MetadataUpdate",
      "type": "event"
    },
    {
      "anonymous": false,
      "inputs": [
        {
          "indexed": true,
          "internalType": "address",
          "name": "previousOwner",
          "type": "address"
        },
        {
          "indexed": true,
          "internalType": "address",
          "name": "newOwner",
          "type": "address"
        }
      ],
      "name": "OwnershipTransferred",
      "type": "event"
    },
    {
      "anonymous": false,
      "inputs": [
        {
          "indexed": true,
          "internalType": "address",
          "name": "from",
          "type": "address"
        },
        {
          "indexed": true,
          "internalType": "address",
          "name": "to",
          "type": "address"
        },
        {
          "indexed": true,
          "internalType": "uint256",
          "name": "tokenId",
          "type": "uint256"
        }
      ],
      "name": "Transfer",
      "type": "event"
    },
    {
      "inputs": [
        {
          "internalType": "address",
          "name": "to",
          "type": "address"
        },
        {
          "internalType": "uint256",
          "name": "tokenId",
          "type": "uint256"
        }
      ],
      "name": "approve",
      "outputs": [],
      "stateMutability": "nonpayable",
      "type": "function"
    },
    {
      "inputs": [
        {
          "internalType": "address",
          "name": "owner",
          "type": "address"
        }
      ],
      "name": "balanceOf",
      "outputs": [
        {
          "internalType": "uint256",
          "name": "",
          "type": "uint256"
        }
      ],
      "stateMutability": "view",
      "type": "function"
    },
    {
      "inputs": [
        {
          "internalType": "uint256",
          "name": "",
          "type": "uint256"
        }
      ],
      "name": "certificates",
      "outputs": [
        {
          "internalType": "string",
          "name": "kraPin",
          "type": "string"
        },
        {
          "internalType": "string",
          "name": "sessionId",
          "type": "string"
        },
        {
          "internalType": "uint256",
          "name": "issueDate",
          "type": "uint256"
        },
        {
          "internalType": "bool",
          "name": "isValid",
          "type": "bool"
        }
      ],
      "stateMutability": "view",
      "type": "function"
    },
    {
      "inputs": [
        {
          "internalType": "uint256",
          "name": "tokenId",
          "type": "uint256"
        }
      ],
      "name": "getApproved",
      "outputs": [
        {
          "internalType": "address",
          "name": "",
          "type": "address"
        }
      ],
      "stateMutability": "view",
      "type": "function"
    },
    {
      "inputs": [
        {
          "internalType": "uint256",
          "name": "tokenId",
          "type": "uint256"
        }
      ],
      "name": "getCertificate",
      "outputs": [
        {
          "internalType": "string",
          "name": "kraPin",
          "type": "string"
        },
        {
          "internalType": "string",
          "name": "sessionId",
          "type": "string"
        },
        {
          "internalType": "uint256",
          "name": "issueDate",
          "type": "uint256"
        },
        {
          "internalType": "bool",
          "name": "isValid",
          "type": "bool"
        }
      ],
      "stateMutability": "view",
      "type": "function"
    },
    {
      "inputs": [
        {
          "internalType": "string",
          "name": "kraPin",
          "type": "string"
        }
      ],
      "name": "getCertificatesByPin",
      "outputs": [
        {
          "internalType": "uint256[]",
          "name": "",
          "type": "uint256[]"
        }
      ],
      "stateMutability": "view",
      "type": "function"
    },
    {
      "inputs": [
        {
          "internalType": "address",
          "name": "owner",
          "type": "address"
        },
        {
          "internalType": "address",
          "name": "operator",
          "type": "address"
        }
      ],
      "name": "isApprovedForAll",
      "outputs": [
        {
          "internalType": "bool",
          "name": "",
          "type": "bool"
        }
      ],
      "stateMutability": "view",
      "type": "function"
    },
    {
      "inputs": [],
      "name": "name",
      "outputs": [
        {
          "internalType": "string",
          "name": "",
          "type": "string"
        }
      ],
      "stateMutability": "view",
      "type": "function"
    },
    {
      "inputs": [],
      "name": "owner",
      "outputs": [
        {
          "internalType": "address",
          "name": "",
          "type": "address"
        }
      ],
      "stateMutability": "view",
      "type": "function"
    },
    {
      "inputs": [
        {
          "internalType": "uint256",
          "name": "tokenId",
          "type": "uint256"
        }
      ],
      "name": "ownerOf",
      "outputs": [
        {
          "internalType": "address",
          "name": "",
          "type": "address"
        }
      ],
      "stateMutability": "view",
      "type": "function"
    },
    {
      "inputs": [
        {
          "internalType": "string",
          "name": "",
          "type": "string"
        },
        {
          "internalType": "uint256",
          "name": "",
          "type": "uint256"
        }
      ],
      "name": "pinToCertificates",
      "outputs": [
        {
          "internalType": "uint256",
          "name": "",
          "type": "uint256"
        }
      ],
      "stateMutability": "view",
      "type": "function"
    },
    {
      "inputs": [],
      "name": "renounceOwnership",
      "outputs": [],
      "stateMutability": "nonpayable",
      "type": "function"
    },
    {
      "inputs": [
        {
          "internalType": "address",
          "name": "to",
          "type": "address"
        },
        {
          "internalType": "string",
          "name": "kraPin",
          "type": "string"
        },
        {
          "internalType": "string",
          "name": "sessionId",
          "type": "string"
        },
        {
          "internalType": "string",
          "name": "uri",
          "type": "string"
        }
      ],
      "name": "safeMint",
      "outputs": [
        {
          "internalType": "uint256",
          "name": "",
          "type": "uint256"
        }
      ],
      "stateMutability": "nonpayable",
      "type": "function"
    },
    {
      "inputs": [
        {
          "internalType": "address",
          "name": "from",
          "type": "address"
        },
        {
          "internalType": "address",
          "name": "to",
          "type": "address"
        },
        {
          "internalType": "uint256",
          "name": "tokenId",
          "type": "uint256"
        }
      ],
      "name": "safeTransferFrom",
      "outputs": [],
      "stateMutability": "nonpayable",
      "type": "function"
    },
    {
      "inputs": [
        {
          "internalType": "address",
          "name": "from",
          "type": "address"
        },
        {
          "internalType": "address",
          "name": "to",
          "type": "address"
        },
        {
          "internalType": "uint256",
          "name": "tokenId",
          "type": "uint256"
        },
        {
          "internalType": "bytes",
          "name": "data",
          "type": "bytes"
        }
      ],
      "name": "safeTransferFrom",
      "outputs": [],
      "stateMutability": "nonpayable",
      "type": "function"
    },
    {
      "inputs": [
        {
          "internalType": "address",
          "name": "operator",
          "type": "address"
        },
        {
          "internalType": "bool",
          "name": "approved",
          "type": "bool"
        }
      ],
      "name": "setApprovalForAll",
      "outputs": [],
      "stateMutability": "nonpayable",
      "type": "function"
    },
    {
      "inputs": [
        {
          "internalType": "uint256",
          "name": "tokenId",
          "type": "uint256"
        },
        {
          "internalType": "bool",
          "name": "isValid",
          "type": "bool"
        }
      ],
      "name": "setCertificateValidity",
      "outputs": [],
      "stateMutability": "nonpayable",
      "type": "function"
    },
    {
      "inputs": [
        {
          "internalType": "bytes4",
          "name": "interfaceId",
          "type": "bytes4"
        }
      ],
      "name": "supportsInterface",
      "outputs": [
        {
          "internalType": "bool",
          "name": "",
          "type": "bool"
        }
      ],
      "stateMutability": "view",
      "type": "function"
    },
    {
      "inputs": [],
      "name": "symbol",
      "outputs": [
        {
          "internalType": "string",
          "name": "",
          "type": "string"
        }
      ],
      "stateMutability": "view",
      "type": "function"
    },
    {
      "inputs": [
        {
          "internalType": "uint256",
          "name": "tokenId",
          "type": "uint256"
        }
      ],
      "name": "tokenURI",
      "outputs": [
        {
          "internalType": "string",
          "name": "",
          "type": "string"
        }
      ],
      "stateMutability": "view",
      "type": "function"
    },
    {
      "inputs": [
        {
          "internalType": "address",
          "name": "from",
          "type": "address"
        },
        {
          "internalType": "address",
          "name": "to",
          "type": "address"
        },
        {
          "internalType": "uint256",
          "name": "tokenId",
          "type": "uint256"
        }
      ],
      "name": "transferFrom",
      "outputs": [],
      "stateMutability": "nonpayable",
      "type": "function"
    },
    {
      "inputs": [
        {
          "internalType": "address",
          "name": "newOwner",
          "type": "address"
        }
      ],
      "name": "transferOwnership",
      "outputs": [],
      "stateMutability": "nonpayable",
      "type": "function"
    }
  ],
  "bytecode": "0x60806040523480156200001157600080fd5b506040518060400160405280601281526020017146696c696e6720436572746966696361746560701b815250604051806040016040528060058152602001641190d1549560da1b81525081600090816200006c919062000199565b5060016200007b828262000199565b50505062000098620000926200009e60201b60201c565b620000a2565b62000265565b3390565b600780546001600160a01b038381166001600160a01b0319831681179093556040519116919082907f8be0079c531659141344cd1fd0a4f28419497f9722a3daafe3b4186f6b6457e090600090a35050565b634e487b7160e01b600052604160045260246000fd5b600181811c908216806200011f57607f821691505b6020821081036200014057634e487b7160e01b600052602260045260246000fd5b50919050565b601f8211156200019457600081815260208120601f850160051c810160208610156200016f5750805b601f850160051c820191505b8181101562000190578281556001016200017b565b5050505b505050565b81516001600160401b03811115620001b557620001b5620000f4565b620001cd81620001c684546200010a565b8462000146565b602080601f831160018114620002055760008415620001ec5750858301515b600019600386901b1c1916600185901b17855562000190565b600085815260208120601f198616915b82811015620002365788860151825594840194600190910190840162000215565b5085821015620002555787850151600019600388901b60f8161c191681555b5050505050600190811b01905550565b61201980620002756000396000f3fe608060405234801561001057600080fd5b50600436106101425760003560e01c8063663b3e22116100b8578063a22cb4651161007c578063a22cb465146102bb578063b88d4fde146102ce578063c87b56dd146102e1578063db95c260146102f4578063e985e9c514610307578063f2fde38b1461034357600080fd5b8063663b3e221461027457806370a0823114610287578063715018a61461029a5780638da5cb5b146102a257806395d89b41146102b357600080fd5b806323b872dd1161010a57806323b872dd146101e557806342842e0e146101f85780634afbe61c1461020b57806351640fee1461021e5780636352211e146102415780636532b3f21461025457600080fd5b806301ffc9a71461014757806303a80dfb1461016f57806306fdde0314610190578063081812fc146101a5578063095ea7b3146101d0575b600080fd5b61015a610155366004611846565b610356565b60405190151581526020015b60405180910390f35b61018261017d36600461192b565b610367565b604051908152602001610166565b61019861048c565b6040516101669190611a14565b6101b86101b3366004611a27565b61051e565b6040516001600160a01b039091168152602001610166565b6101e36101de366004611a40565b610545565b005b6101e36101f3366004611a6a565b61065f565b6101e3610206366004611a6a565b610690565b6101e3610219366004611ab6565b6106ab565b61023161022c366004611a27565b610762565b6040516101669493929190611ae2565b6101b861024f366004611a27565b610936565b610267610262366004611b20565b610996565b6040516101669190611b55565b610231610282366004611a27565b610a06565b610182610295366004611b99565b610b42565b6101e3610bc8565b6007546001600160a01b03166101b8565b610198610bdc565b6101e36102c9366004611bb4565b610beb565b6101e36102dc366004611bde565b610bfa565b6101986102ef366004611a27565b610c32565b610182610302366004611c4e565b610c3d565b61015a610315366004611c93565b6001600160a01b03918216600090815260056020908152604080832093909416825291909152205460ff1690565b6101e3610351366004611b99565b610c7d565b600061036182610cf6565b92915050565b6000610371610d1b565b600880546000918261038283611cbd565b9190505590506103928682610d75565b61039c8184610d8f565b6040805160808101825286815260208082018790524282840152600160608301526000848152600990915291909120815181906103d99082611d6c565b50602082015160018201906103ee9082611d6c565b5060408281015160028301556060909201516003909101805460ff191691151591909117905551600a90610423908790611e2c565b9081526040519081900360209081018220805460018101825560009182529190200182905581907f55e235e38225040825e04ea5d7545c53f47415b5543ec6bf898aa3a96742d5f9906104799088908890611e48565b60405180910390a290505b949350505050565b60606000805461049b90611ce4565b80601f01602080910402602001604051908101604052809291908181526020018280546104c790611ce4565b80156105145780601f106104e957610100808354040283529160200191610514565b820191906000526020600020905b8154815290600101906020018083116104f757829003601f168201915b5050505050905090565b600061052982610e4b565b506000908152600460205260409020546001600160a01b031690565b600061055082610936565b9050806001600160a01b0316836001600160a01b0316036105c25760405162461bcd60e51b815260206004820152602160248201527f4552433732313a20617070726f76616c20746f2063757272656e74206f776e656044820152603960f91b60648201526084015b60405180910390fd5b336001600160a01b03821614806105de57506105de8133610315565b6106505760405162461bcd60e51b815260206004820152603d60248201527f4552433732313a20617070726f76652063616c6c6572206973206e6f7420746f60448201527f6b656e206f776e6572206f7220617070726f76656420666f7220616c6c00000060648201526084016105b9565b61065a8383610e9b565b505050565b6106693382610f09565b6106855760405162461bcd60e51b81526004016105b990611e76565b61065a838383610f87565b61065a83838360405180602001604052806000815250610bfa565b6106b3610d1b565b6106bc826110eb565b6107085760405162461bcd60e51b815260206004820152601a60248201527f436572746966696361746520646f6573206e6f7420657869737400000000000060448201526064016105b9565b600082815260096020908152604091829020600301805460ff1916841515908117909155915191825283917f32e6dfc12cf8c6ec42ac44f0dbd97c3e995fe51de8ec6605cf3c6f26a8fa35bc910160405180910390a25050565b606080600080610771856110eb565b6107bd5760405162461bcd60e51b815260206004820152601a60248201527f436572746966696361746520646f6573206e6f7420657869737400000000000060448201526064016105b9565b6000858152600960205260408082208151608081019092528054829082906107e490611ce4565b80601f016020809104026020016040519081016040528092919081815260200182805461081090611ce4565b801561085d5780601f106108325761010080835404028352916020019161085d565b820191906000526020600020905b81548152906001019060200180831161084057829003601f168201915b5050505050815260200160018201805461087690611ce4565b80601f01602080910402602001604051908101604052809291908181526020018280546108a290611ce4565b80156108ef5780601f106108c4576101008083540402835291602001916108ef565b820191906000526020600020905b8154815290600101906020018083116108d257829003601f168201915b5050509183525050600282015460208083019190915260039092015460ff161515604091820152825191830151908301516060909301519199909850919650945092505050565b6000818152600260205260408120546001600160a01b0316806103615760405162461bcd60e51b8152602060048201526018602482015277115490cdcc8c4e881a5b9d985b1a59081d1bdad95b88125160421b60448201526064016105b9565b6060600a826040516109a89190611e2c565b90815260408051918290036020908101832080548083028501830190935282845291908301828280156109fa57602002820191906000526020600020905b8154815260200190600101908083116109e6575b50505050509050919050565b600960205260009081526040902080548190610a2190611ce4565b80601f0160208091040260200160405190810160405280929190818152602001828054610a4d90611ce4565b8015610a9a5780601f10610a6f57610100808354040283529160200191610a9a565b820191906000526020600020905b815481529060010190602001808311610a7d57829003601f168201915b505050505090806001018054610aaf90611ce4565b80601f0160208091040260200160405190810160405280929190818152602001828054610adb90611ce4565b8015610b285780601f10610afd57610100808354040283529160200191610b28565b820191906000526020600020905b815481529060010190602001808311610b0b57829003601f168201915b50505050600283015460039093015491929160ff16905084565b60006001600160a01b038216610bac5760405162461bcd60e51b815260206004820152602960248201527f4552433732313a2061646472657373207a65726f206973206e6f7420612076616044820152683634b21037bbb732b960b91b60648201526084016105b9565b506001600160a01b031660009081526003602052604090205490565b610bd0610d1b565b610bda6000611108565b565b60606001805461049b90611ce4565b610bf633838361115a565b5050565b610c043383610f09565b610c205760405162461bcd60e51b81526004016105b990611e76565b610c2c84848484611228565b50505050565b60606103618261125b565b8151602081840181018051600a825292820191850191909120919052805482908110610c6857600080fd5b90600052602060002001600091509150505481565b610c85610d1b565b6001600160a01b038116610cea5760405162461bcd60e51b815260206004820152602660248201527f4f776e61626c653a206e6577206f776e657220697320746865207a65726f206160448201526564647265737360d01b60648201526084016105b9565b610cf381611108565b50565b60006001600160e01b03198216632483248360e11b1480610361575061036182611363565b6007546001600160a01b03163314610bda5760405162461bcd60e51b815260206004820181905260248201527f4f776e61626c653a2063616c6c6572206973206e6f7420746865206f776e657260448201526064016105b9565b610bf68282604051806020016040528060008152506113b3565b610d98826110eb565b610dfb5760405162461bcd60e51b815260206004820152602e60248201527f45524337323155524953746f726167653a2055524920736574206f66206e6f6e60448201526d32bc34b9ba32b73a103a37b5b2b760911b60648201526084016105b9565b6000828152600660205260409020610e138282611d6c565b506040518281527ff8e1a15aba9398e019f0b49df1a4fde98ee17ae345cb5f6b5e2c27f5033e8ce79060200160405180910390a15050565b610e54816110eb565b610cf35760405162461bcd60e51b8152602060048201526018602482015277115490cdcc8c4e881a5b9d985b1a59081d1bdad95b88125160421b60448201526064016105b9565b600081815260046020526040902080546001600160a01b0319166001600160a01b0384169081179091558190610ed082610936565b6001600160a01b03167f8c5be1e5ebec7d5bd14f71427d1e84f3dd0314c0f7b2291e5b200ac8c7c3b92560405160405180910390a45050565b600080610f1583610936565b9050806001600160a01b0316846001600160a01b03161480610f5c57506001600160a01b0380821660009081526005602090815260408083209388168352929052205460ff165b806104845750836001600160a01b0316610f758461051e565b6001600160a01b031614949350505050565b826001600160a01b0316610f9a82610936565b6001600160a01b031614610fc05760405162461bcd60e51b81526004016105b990611ec3565b6001600160a01b0382166110225760405162461bcd60e51b8152602060048201526024808201527f4552433732313a207472616e7366657220746f20746865207a65726f206164646044820152637265737360e01b60648201526084016105b9565b826001600160a01b031661103582610936565b6001600160a01b03161461105b5760405162461bcd60e51b81526004016105b990611ec3565b600081815260046020908152604080832080546001600160a01b03199081169091556001600160a01b0387811680865260038552838620805460001901905590871680865283862080546001019055868652600290945282852080549092168417909155905184937fddf252ad1be2c89b69c2b068fc378daa952ba7f163c4a11628f55a4df523b3ef91a4505050565b6000908152600260205260409020546001600160a01b0316151590565b600780546001600160a01b038381166001600160a01b0319831681179093556040519116919082907f8be0079c531659141344cd1fd0a4f28419497f9722a3daafe3b4186f6b6457e090600090a35050565b816001600160a01b0316836001600160a01b0316036111bb5760405162461bcd60e51b815260206004820152601960248201527f4552433732313a20617070726f766520746f2063616c6c65720000000000000060448201526064016105b9565b6001600160a01b03838116600081815260056020908152604080832094871680845294825291829020805460ff191686151590811790915591519182527f17307eab39ab6107e8899845ad3d59bd9653f200f220920489ca2b5937696c31910160405180910390a3505050565b611233848484610f87565b61123f848484846113e6565b610c2c5760405162461bcd60e51b81526004016105b990611f08565b606061126682610e4b565b6000828152600660205260408120805461127f90611ce4565b80601f01602080910402602001604051908101604052809291908181526020018280546112ab90611ce4565b80156112f85780601f106112cd576101008083540402835291602001916112f8565b820191906000526020600020905b8154815290600101906020018083116112db57829003601f168201915b50505050509050600061131660408051602081019091526000815290565b90508051600003611328575092915050565b81511561135a578082604051602001611342929190611f5a565b60405160208183030381529060405292505050919050565b610484846114e4565b60006001600160e01b031982166380ac58cd60e01b148061139457506001600160e01b03198216635b5e139f60e01b145b8061036157506301ffc9a760e01b6001600160e01b0319831614610361565b6113bd8383611558565b6113ca60008484846113e6565b61065a5760405162461bcd60e51b81526004016105b990611f08565b60006001600160a01b0384163b156114dc57604051630a85bd0160e11b81526001600160a01b0385169063150b7a029061142a903390899088908890600401611f89565b6020604051808303816000875af1925050508015611465575060408051601f3d908101601f1916820190925261146291810190611fc6565b60015b6114c2573d808015611493576040519150601f19603f3d011682016040523d82523d6000602084013e611498565b606091505b5080516000036114ba5760405162461bcd60e51b81526004016105b990611f08565b805181602001fd5b6001600160e01b031916630a85bd0160e11b149050610484565b506001610484565b60606114ef82610e4b565b600061150660408051602081019091526000815290565b905060008151116115265760405180602001604052806000815250611551565b80611530846116c5565b604051602001611541929190611f5a565b6040516020818303038152906040525b9392505050565b6001600160a01b0382166115ae5760405162461bcd60e51b815260206004820181905260248201527f4552433732313a206d696e7420746f20746865207a65726f206164647265737360448201526064016105b9565b6115b7816110eb565b156116045760405162461bcd60e51b815260206004820152601c60248201527f4552433732313a20746f6b656e20616c7265616479206d696e7465640000000060448201526064016105b9565b61160d816110eb565b1561165a5760405162461bcd60e51b815260206004820152601c60248201527f4552433732313a20746f6b656e20616c7265616479206d696e7465640000000060448201526064016105b9565b6001600160a01b038216600081815260036020908152604080832080546001019055848352600290915280822080546001600160a01b0319168417905551839291907fddf252ad1be2c89b69c2b068fc378daa952ba7f163c4a11628f55a4df523b3ef908290a45050565b606060006116d283611758565b600101905060008167ffffffffffffffff8111156116f2576116f261187f565b6040519080825280601f01601f19166020018201604052801561171c576020820181803683370190505b5090508181016020015b600019016f181899199a1a9b1b9c1cb0b131b232b360811b600a86061a8153600a850494508461172657509392505050565b60008072184f03e93ff9f4daa797ed6e38ed64bf6a1f0160401b83106117975772184f03e93ff9f4daa797ed6e38ed64bf6a1f0160401b830492506040015b6d04ee2d6d415b85acef810000000083106117c3576d04ee2d6d415b85acef8100000000830492506020015b662386f26fc1000083106117e157662386f26fc10000830492506010015b6305f5e10083106117f9576305f5e100830492506008015b612710831061180d57612710830492506004015b6064831061181f576064830492506002015b600a83106103615760010192915050565b6001600160e01b031981168114610cf357600080fd5b60006020828403121561185857600080fd5b813561155181611830565b80356001600160a01b038116811461187a57600080fd5b919050565b634e487b7160e01b600052604160045260246000fd5b600067ffffffffffffffff808411156118b0576118b061187f565b604051601f8501601f19908116603f011681019082821181831017156118d8576118d861187f565b816040528093508581528686860111156118f157600080fd5b858560208301376000602087830101525050509392505050565b600082601f83011261191c57600080fd5b61155183833560208501611895565b6000806000806080858703121561194157600080fd5b61194a85611863565b9350602085013567ffffffffffffffff8082111561196757600080fd5b6119738883890161190b565b9450604087013591508082111561198957600080fd5b6119958883890161190b565b935060608701359150808211156119ab57600080fd5b506119b88782880161190b565b91505092959194509250565b60005b838110156119df5781810151838201526020016119c7565b50506000910152565b60008151808452611a008160208601602086016119c4565b601f01601f19169290920160200192915050565b60208152600061155160208301846119e8565b600060208284031215611a3957600080fd5b5035919050565b60008060408385031215611a5357600080fd5b611a5c83611863565b946020939093013593505050565b600080600060608486031215611a7f57600080fd5b611a8884611863565b9250611a9660208501611863565b9150604084013590509250925092565b8035801515811461187a57600080fd5b60008060408385031215611ac957600080fd5b82359150611ad960208401611aa6565b90509250929050565b608081526000611af560808301876119e8565b8281036020840152611b0781876119e8565b6040840195909552505090151560609091015292915050565b600060208284031215611b3257600080fd5b813567ffffffffffffffff811115611b4957600080fd5b6104848482850161190b565b6020808252825182820181905260009190848201906040850190845b81811015611b8d57835183529284019291840191600101611b71565b50909695505050505050565b600060208284031215611bab57600080fd5b61155182611863565b60008060408385031215611bc757600080fd5b611bd083611863565b9150611ad960208401611aa6565b60008060008060808587031215611bf457600080fd5b611bfd85611863565b9350611c0b60208601611863565b925060408501359150606085013567ffffffffffffffff811115611c2e57600080fd5b8501601f81018713611c3f57600080fd5b6119b887823560208401611895565b60008060408385031215611c6157600080fd5b823567ffffffffffffffff811115611c7857600080fd5b611c848582860161190b565b95602094909401359450505050565b60008060408385031215611ca657600080fd5b611caf83611863565b9150611ad960208401611863565b600060018201611cdd57634e487b7160e01b600052601160045260246000fd5b5060010190565b600181811c90821680611cf857607f821691505b602082108103611d1857634e487b7160e01b600052602260045260246000fd5b50919050565b601f82111561065a57600081815260208120601f850160051c81016020861015611d455750805b601f850160051c820191505b81811015611d6457828155600101611d51565b505050505050565b815167ffffffffffffffff811115611d8657611d8661187f565b611d9a81611d948454611ce4565b84611d1e565b602080601f831160018114611dcf5760008415611db75750858301515b600019600386901b1c1916600185901b178555611d64565b600085815260208120601f198616915b82811015611dfe57888601518255948401946001909101908401611ddf565b5085821015611e1c5787850151600019600388901b60f8161c191681555b5050505050600190811b01905550565b60008251611e3e8184602087016119c4565b9190910192915050565b604081526000611e5b60408301856119e8565b8281036020840152611e6d81856119e8565b95945050505050565b6020808252602d908201527f4552433732313a2063616c6c6572206973206e6f7420746f6b656e206f776e6560408201526c1c881bdc88185c1c1c9bdd9959609a1b606082015260800190565b60208082526025908201527f4552433732313a207472616e736665722066726f6d20696e636f72726563742060408201526437bbb732b960d91b606082015260800190565b60208082526032908201527f4552433732313a207472616e7366657220746f206e6f6e20455243373231526560408201527131b2b4bb32b91034b6b83632b6b2b73a32b960711b606082015260800190565b60008351611f6c8184602088016119c4565b835190830190611f808183602088016119c4565b01949350505050565b6001600160a01b0385811682528416602082015260408101839052608060608201819052600090611fbc908301846119e8565b9695505050505050565b600060208284031215611fd857600080fd5b81516115518161183056fea2646970667358221220eb2946b988e1badb8ea9fc502a56b91835389c019b855b36d3b88b66bbee6d9664736f6c63430008140033",
  "linkReferences": {},
  "deployedLinkReferences": {}
}