{
  "_format": "hh-sol-artifact-1",
  "contractName": "PaymentTracker",
  "sourceName": "contracts/PaymentTracker.sol",
  "abi": [
    {
      "inputs": [],
      "stateMutability": "nonpayable",
      "type": "constructor"
    },
    {
      "anonymous": false,
      "inputs": [
        {
          "indexed": true,
          "internalType": "string",
          "name": "kraPin",
          "type": "string"
        },
        {
          "indexed": false,
          "internalType": "uint256",
          "name": "timestamp",
          "type": "uint256"
        },
        {
          "indexed": false,
          "internalType": "string",
          "name": "sessionId",
          "type": "string"
        }
      ],
      "name": "CredentialsDeleted",
      "type": "event"
    },
    {
      "anonymous": false,
      "inputs": [
        {
          "indexed": true,
          "internalType": "address",
          "name": "previousOwner",
          "type": "address"
        },
        {
          "indexed": true,
          "internalType": "address",
          "name": "newOwner",
          "type": "address"
        }
      ],
      "name": "OwnershipTransferred",
      "type": "event"
    },
    {
      "anonymous": false,
      "inputs": [
        {
          "indexed": false,
          "internalType": "string",
          "name": "sessionId",
          "type": "string"
        },
        {
          "indexed": false,
          "internalType": "string",
          "name": "reason",
          "type": "string"
        },
        {
          "indexed": false,
          "internalType": "uint256",
          "name": "timestamp",
          "type": "uint256"
        }
      ],
      "name": "PaymentFailed",
      "type": "event"
    },
    {
      "anonymous": false,
      "inputs": [
        {
          "indexed": false,
          "internalType": "string",
          "name": "sessionId",
          "type": "string"
        },
        {
          "indexed": false,
          "internalType": "uint256",
          "name": "amount",
          "type": "uint256"
        },
        {
          "indexed": false,
          "internalType": "uint256",
          "name": "timestamp",
          "type": "uint256"
        }
      ],
      "name": "PaymentInitiated",
      "type": "event"
    },
    {
      "anonymous": false,
      "inputs": [
        {
          "indexed": false,
          "internalType": "string",
          "name": "sessionId",
          "type": "string"
        },
        {
          "indexed": false,
          "internalType": "string",
          "name": "paymentCode",
          "type": "string"
        },
        {
          "indexed": false,
          "internalType": "uint256",
          "name": "timestamp",
          "type": "uint256"
        }
      ],
      "name": "PaymentReceived",
      "type": "event"
    },
    {
      "anonymous": false,
      "inputs": [
        {
          "indexed": false,
          "internalType": "string",
          "name": "sessionId",
          "type": "string"
        },
        {
          "indexed": false,
          "internalType": "string",
          "name": "reason",
          "type": "string"
        },
        {
          "indexed": false,
          "internalType": "uint256",
          "name": "timestamp",
          "type": "uint256"
        }
      ],
      "name": "SessionAbandoned",
      "type": "event"
    },
    {
      "anonymous": false,
      "inputs": [
        {
          "indexed": false,
          "internalType": "string",
          "name": "sessionId",
          "type": "string"
        },
        {
          "indexed": false,
          "internalType": "uint256",
          "name": "timestamp",
          "type": "uint256"
        }
      ],
      "name": "SessionCompleted",
      "type": "event"
    },
    {
      "anonymous": false,
      "inputs": [
        {
          "indexed": true,
          "internalType": "string",
          "name": "kraPin",
          "type": "string"
        },
        {
          "indexed": false,
          "internalType": "string",
          "name": "sessionId",
          "type": "string"
        },
        {
          "indexed": false,
          "internalType": "uint256",
          "name": "amount",
          "type": "uint256"
        },
        {
          "indexed": false,
          "internalType": "uint256",
          "name": "timestamp",
          "type": "uint256"
        }
      ],
      "name": "SessionCreated",
      "type": "event"
    },
    {
      "anonymous": false,
      "inputs": [
        {
          "indexed": false,
          "internalType": "string",
          "name": "sessionId",
          "type": "string"
        },
        {
          "indexed": false,
          "internalType": "uint256",
          "name": "timestamp",
          "type": "uint256"
        }
      ],
      "name": "SessionExpired",
      "type": "event"
    },
    {
      "anonymous": false,
      "inputs": [
        {
          "indexed": false,
          "internalType": "string",
          "name": "sessionId",
          "type": "string"
        },
        {
          "indexed": false,
          "internalType": "enum PaymentTracker.SessionStatus",
          "name": "status",
          "type": "uint8"
        },
        {
          "indexed": false,
          "internalType": "uint256",
          "name": "timestamp",
          "type": "uint256"
        }
      ],
      "name": "SessionStatusUpdated",
      "type": "event"
    },
    {
      "inputs": [],
      "name": "PAYMENT_TIMEOUT",
      "outputs": [
        {
          "internalType": "uint256",
          "name": "",
          "type": "uint256"
        }
      ],
      "stateMutability": "view",
      "type": "function"
    },
    {
      "inputs": [],
      "name": "SESSION_TIMEOUT",
      "outputs": [
        {
          "internalType": "uint256",
          "name": "",
          "type": "uint256"
        }
      ],
      "stateMutability": "view",
      "type": "function"
    },
    {
      "inputs": [
        {
          "internalType": "string",
          "name": "sessionId",
          "type": "string"
        },
        {
          "internalType": "string",
          "name": "reason",
          "type": "string"
        }
      ],
      "name": "abandonSession",
      "outputs": [],
      "stateMutability": "nonpayable",
      "type": "function"
    },
    {
      "inputs": [
        {
          "internalType": "string",
          "name": "sessionId",
          "type": "string"
        }
      ],
      "name": "checkSessionTimeout",
      "outputs": [],
      "stateMutability": "nonpayable",
      "type": "function"
    },
    {
      "inputs": [
        {
          "internalType": "string",
          "name": "sessionId",
          "type": "string"
        }
      ],
      "name": "completeSession",
      "outputs": [],
      "stateMutability": "nonpayable",
      "type": "function"
    },
    {
      "inputs": [
        {
          "internalType": "string",
          "name": "sessionId",
          "type": "string"
        },
        {
          "internalType": "string",
          "name": "kraPin",
          "type": "string"
        },
        {
          "internalType": "uint256",
          "name": "amount",
          "type": "uint256"
        }
      ],
      "name": "createSession",
      "outputs": [],
      "stateMutability": "nonpayable",
      "type": "function"
    },
    {
      "inputs": [
        {
          "internalType": "string",
          "name": "kraPin",
          "type": "string"
        },
        {
          "internalType": "string",
          "name": "sessionId",
          "type": "string"
        }
      ],
      "name": "deleteCredentials",
      "outputs": [],
      "stateMutability": "nonpayable",
      "type": "function"
    },
    {
      "inputs": [
        {
          "internalType": "string",
          "name": "",
          "type": "string"
        }
      ],
      "name": "deletedCredentials",
      "outputs": [
        {
          "internalType": "bool",
          "name": "",
          "type": "bool"
        }
      ],
      "stateMutability": "view",
      "type": "function"
    },
    {
      "inputs": [
        {
          "internalType": "string",
          "name": "",
          "type": "string"
        },
        {
          "internalType": "uint256",
          "name": "",
          "type": "uint256"
        }
      ],
      "name": "filingHistory",
      "outputs": [
        {
          "internalType": "string",
          "name": "",
          "type": "string"
        }
      ],
      "stateMutability": "view",
      "type": "function"
    },
    {
      "inputs": [
        {
          "internalType": "string",
          "name": "kraPin",
          "type": "string"
        }
      ],
      "name": "getFilingHistory",
      "outputs": [
        {
          "components": [
            {
              "internalType": "string",
              "name": "kraPin",
              "type": "string"
            },
            {
              "internalType": "uint256",
              "name": "amount",
              "type": "uint256"
            },
            {
              "internalType": "uint256",
              "name": "timestamp",
              "type": "uint256"
            },
            {
              "internalType": "enum PaymentTracker.SessionStatus",
              "name": "status",
              "type": "uint8"
            },
            {
              "internalType": "string",
              "name": "paymentCode",
              "type": "string"
            },
            {
              "internalType": "uint256",
              "name": "attempts",
              "type": "uint256"
            },
            {
              "internalType": "bool",
              "name": "credentialsDeleted",
              "type": "bool"
            },
            {
              "internalType": "string",
              "name": "abandonReason",
              "type": "string"
            }
          ],
          "internalType": "struct PaymentTracker.Session[]",
          "name": "",
          "type": "tuple[]"
        }
      ],
      "stateMutability": "view",
      "type": "function"
    },
    {
      "inputs": [
        {
          "internalType": "string",
          "name": "sessionId",
          "type": "string"
        }
      ],
      "name": "getSession",
      "outputs": [
        {
          "components": [
            {
              "internalType": "string",
              "name": "kraPin",
              "type": "string"
            },
            {
              "internalType": "uint256",
              "name": "amount",
              "type": "uint256"
            },
            {
              "internalType": "uint256",
              "name": "timestamp",
              "type": "uint256"
            },
            {
              "internalType": "enum PaymentTracker.SessionStatus",
              "name": "status",
              "type": "uint8"
            },
            {
              "internalType": "string",
              "name": "paymentCode",
              "type": "string"
            },
            {
              "internalType": "uint256",
              "name": "attempts",
              "type": "uint256"
            },
            {
              "internalType": "bool",
              "name": "credentialsDeleted",
              "type": "bool"
            },
            {
              "internalType": "string",
              "name": "abandonReason",
              "type": "string"
            }
          ],
          "internalType": "struct PaymentTracker.Session",
          "name": "",
          "type": "tuple"
        }
      ],
      "stateMutability": "view",
      "type": "function"
    },
    {
      "inputs": [
        {
          "internalType": "string",
          "name": "sessionId",
          "type": "string"
        },
        {
          "internalType": "uint256",
          "name": "amount",
          "type": "uint256"
        }
      ],
      "name": "initiatePayment",
      "outputs": [],
      "stateMutability": "nonpayable",
      "type": "function"
    },
    {
      "inputs": [
        {
          "internalType": "string",
          "name": "kraPin",
          "type": "string"
        }
      ],
      "name": "isCredentialDeleted",
      "outputs": [
        {
          "internalType": "bool",
          "name": "",
          "type": "bool"
        }
      ],
      "stateMutability": "view",
      "type": "function"
    },
    {
      "inputs": [],
      "name": "owner",
      "outputs": [
        {
          "internalType": "address",
          "name": "",
          "type": "address"
        }
      ],
      "stateMutability": "view",
      "type": "function"
    },
    {
      "inputs": [
        {
          "internalType": "string",
          "name": "sessionId",
          "type": "string"
        },
        {
          "internalType": "string",
          "name": "paymentCode",
          "type": "string"
        }
      ],
      "name": "recordPayment",
      "outputs": [],
      "stateMutability": "nonpayable",
      "type": "function"
    },
    {
      "inputs": [],
      "name": "renounceOwnership",
      "outputs": [],
      "stateMutability": "nonpayable",
      "type": "function"
    },
    {
      "inputs": [
        {
          "internalType": "string",
          "name": "",
          "type": "string"
        }
      ],
      "name": "sessions",
      "outputs": [
        {
          "internalType": "string",
          "name": "kraPin",
          "type": "string"
        },
        {
          "internalType": "uint256",
          "name": "amount",
          "type": "uint256"
        },
        {
          "internalType": "uint256",
          "name": "timestamp",
          "type": "uint256"
        },
        {
          "internalType": "enum PaymentTracker.SessionStatus",
          "name": "status",
          "type": "uint8"
        },
        {
          "internalType": "string",
          "name": "paymentCode",
          "type": "string"
        },
        {
          "internalType": "uint256",
          "name": "attempts",
          "type": "uint256"
        },
        {
          "internalType": "bool",
          "name": "credentialsDeleted",
          "type": "bool"
        },
        {
          "internalType": "string",
          "name": "abandonReason",
          "type": "string"
        }
      ],
      "stateMutability": "view",
      "type": "function"
    },
    {
      "inputs": [
        {
          "internalType": "address",
          "name": "newOwner",
          "type": "address"
        }
      ],
      "name": "transferOwnership",
      "outputs": [],
      "stateMutability": "nonpayable",
      "type": "function"
    }
  ],
  "bytecode": "0x608060405234801561001057600080fd5b5061001a3361001f565b61006f565b600080546001600160a01b038381166001600160a01b0319831681178455604051919092169283917f8be0079c531659141344cd1fd0a4f28419497f9722a3daafe3b4186f6b6457e09190a35050565b61220e8061007e6000396000f3fe608060405234801561001057600080fd5b50600436106101165760003560e01c8063bbead320116100a2578063c33bd9fb11610071578063c33bd9fb14610241578063c526cba11461026f578063cf70263614610282578063df2a93ae146102a2578063f2fde38b146102c257600080fd5b8063bbead320146101ef578063bf56354f14610202578063bfe5d12714610215578063c083ad991461023857600080fd5b80635dd1c512116100e95780635dd1c51214610186578063715018a6146101995780638da5cb5b146101a15780639ccc81f9146101bc578063a24d2203146101dc57600080fd5b8063218c4da01461011b578063239ce95c146101375780634f4ba3481461014c578063549ffdd314610173575b600080fd5b61012461070881565b6040519081526020015b60405180910390f35b61014a610145366004611b3a565b6102d5565b005b61015f61015a366004611b3a565b610499565b60405161012e989796959493929190611bff565b61014a610181366004611b3a565b61068d565b61014a610194366004611c71565b6107f1565b61014a61094b565b6000546040516001600160a01b03909116815260200161012e565b6101cf6101ca366004611b3a565b61095f565b60405161012e9190611d65565b61014a6101ea366004611dc7565b610d4c565b61014a6101fd366004611e34565b611018565b61014a610210366004611c71565b611188565b610228610223366004611b3a565b61133a565b604051901515815260200161012e565b610124611c2081565b61022861024f366004611b3a565b805160208183018101805160038252928201919093012091525460ff1681565b61014a61027d366004611c71565b611365565b610295610290366004611b3a565b6115c3565b60405161012e9190611e79565b6102b56102b0366004611e34565b611857565b60405161012e9190611e93565b61014a6102d0366004611ea6565b61191f565b6001816040516102e59190611ecf565b90815260200160405180910390206002015460000361031f5760405162461bcd60e51b815260040161031690611eeb565b60405180910390fd5b60036001826040516103319190611ecf565b9081526040519081900360200190206003015460ff16600881111561035857610358611bc7565b1415801561039d575060076001826040516103739190611ecf565b9081526040519081900360200190206003015460ff16600881111561039a5761039a611bc7565b14155b6103b95760405162461bcd60e51b815260040161031690611f1b565b611c206001826040516103cc9190611ecf565b9081526020016040518091039020600201546103e89190611f61565b4211156104965760076001826040516104019190611ecf565b908152604051908190036020019020600301805460ff1916600183600881111561042d5761042d611bc7565b02179055507f62d9213245d7f343a8a9b0cd8d1e8301cf9e14b17270dd869f6b3a3bb5da6a808142604051610463929190611f7a565b60405180910390a16000805160206121b98339815191528160074260405161048d93929190611f9c565b60405180910390a15b50565b80516020818301810180516001825292820191909301209152805481906104bf90611fcc565b80601f01602080910402602001604051908101604052809291908181526020018280546104eb90611fcc565b80156105385780601f1061050d57610100808354040283529160200191610538565b820191906000526020600020905b81548152906001019060200180831161051b57829003601f168201915b5050506001840154600285015460038601546004870180549697939692955060ff90911693509061056890611fcc565b80601f016020809104026020016040519081016040528092919081815260200182805461059490611fcc565b80156105e15780601f106105b6576101008083540402835291602001916105e1565b820191906000526020600020905b8154815290600101906020018083116105c457829003601f168201915b50505050600583015460068401546007850180549495929460ff90921693509061060a90611fcc565b80601f016020809104026020016040519081016040528092919081815260200182805461063690611fcc565b80156106835780601f1061065857610100808354040283529160200191610683565b820191906000526020600020905b81548152906001019060200180831161066657829003601f168201915b5050505050905088565b610695611995565b6001816040516106a59190611ecf565b9081526020016040518091039020600201546000036106d65760405162461bcd60e51b815260040161031690611eeb565b60026001826040516106e89190611ecf565b9081526040519081900360200190206003015460ff16600881111561070f5761070f611bc7565b146107535760405162461bcd60e51b815260206004820152601460248201527314185e5b595b9d081b9bdd081c9958d95a5d995960621b6044820152606401610316565b60036001826040516107659190611ecf565b908152604051908190036020019020600301805460ff1916600183600881111561079157610791611bc7565b02179055507f6e47dd1008415e2c3f9e85c9164e9132873741bd195491f6489f1ff732fdf89981426040516107c7929190611f7a565b60405180910390a16000805160206121b98339815191528160034260405161048d93929190611f9c565b6107f9611995565b6003826040516108099190611ecf565b9081526040519081900360200190205460ff16156108695760405162461bcd60e51b815260206004820152601b60248201527f43726564656e7469616c7320616c72656164792064656c6574656400000000006044820152606401610316565b600160038360405161087b9190611ecf565b908152604051908190036020018120805492151560ff19909316929092179091556001906108aa908390611ecf565b9081526020016040518091039020600201546000146108f857600180826040516108d49190611ecf565b908152604051908190036020019020600601805491151560ff199092169190911790555b816040516109069190611ecf565b60405180910390207f218a20882ace47e67a141f2fbdaa0eca135febe4a2e813cc17427621ba1dd83a428360405161093f929190612006565b60405180910390a25050565b610953611995565b61095d60006119ef565b565b606060006002836040516109739190611ecf565b9081526020016040518091039020805480602002602001604051908101604052809291908181526020016000905b82821015610a4d5783829060005260206000200180546109c090611fcc565b80601f01602080910402602001604051908101604052809291908181526020018280546109ec90611fcc565b8015610a395780601f10610a0e57610100808354040283529160200191610a39565b820191906000526020600020905b815481529060010190602001808311610a1c57829003601f168201915b5050505050815260200190600101906109a1565b5050505090506000815167ffffffffffffffff811115610a6f57610a6f611a97565b604051908082528060200260200182016040528015610aa857816020015b610a95611a3f565b815260200190600190039081610a8d5790505b50905060005b8251811015610d44576001838281518110610acb57610acb61201f565b6020026020010151604051610ae09190611ecf565b908152602001604051809103902060405180610100016040529081600082018054610b0a90611fcc565b80601f0160208091040260200160405190810160405280929190818152602001828054610b3690611fcc565b8015610b835780601f10610b5857610100808354040283529160200191610b83565b820191906000526020600020905b815481529060010190602001808311610b6657829003601f168201915b50505091835250506001820154602082015260028201546040820152600382015460609091019060ff166008811115610bbe57610bbe611bc7565b6008811115610bcf57610bcf611bc7565b8152602001600482018054610be390611fcc565b80601f0160208091040260200160405190810160405280929190818152602001828054610c0f90611fcc565b8015610c5c5780601f10610c3157610100808354040283529160200191610c5c565b820191906000526020600020905b815481529060010190602001808311610c3f57829003601f168201915b505050918352505060058201546020820152600682015460ff1615156040820152600782018054606090920191610c9290611fcc565b80601f0160208091040260200160405190810160405280929190818152602001828054610cbe90611fcc565b8015610d0b5780601f10610ce057610100808354040283529160200191610d0b565b820191906000526020600020905b815481529060010190602001808311610cee57829003601f168201915b505050505081525050828281518110610d2657610d2661201f565b60200260200101819052508080610d3c90612035565b915050610aae565b509392505050565b610d54611995565b600183604051610d649190611ecf565b908152602001604051809103902060020154600014610dbe5760405162461bcd60e51b815260206004820152601660248201527553657373696f6e20616c72656164792065786973747360501b6044820152606401610316565b600382604051610dce9190611ecf565b9081526040519081900360200190205460ff1615610e2e5760405162461bcd60e51b815260206004820152601860248201527f43726564656e7469616c7320776572652064656c6574656400000000000000006044820152606401610316565b60405180610100016040528083815260200182815260200142815260200160006008811115610e5f57610e5f611bc7565b81526020016040518060200160405280600081525081526020016001815260200160001515815260200160405180602001604052806000815250815250600184604051610eac9190611ecf565b90815260405190819003602001902081518190610ec9908261209d565b50602082015181600101556040820151816002015560608201518160030160006101000a81548160ff02191690836008811115610f0857610f08611bc7565b021790555060808201516004820190610f21908261209d565b5060a0820151600582015560c082015160068201805460ff191691151591909117905560e08201516007820190610f58908261209d565b50905050600282604051610f6c9190611ecf565b908152604051602091819003820190208054600181018255600091825291902001610f97848261209d565b5081604051610fa69190611ecf565b60405180910390207fc709b8e5ba9741f5fa4e2881570946fcf49a1f554f549fa7e1bbda80cc2b2935848342604051610fe19392919061215d565b60405180910390a26000805160206121b98339815191528360004260405161100b93929190611f9c565b60405180910390a1505050565b611020611995565b6001826040516110309190611ecf565b9081526020016040518091039020600201546000036110615760405162461bcd60e51b815260040161031690611eeb565b60006001836040516110739190611ecf565b9081526040519081900360200190206003015460ff16600881111561109a5761109a611bc7565b146110b75760405162461bcd60e51b815260040161031690611f1b565b600180836040516110c89190611ecf565b908152604051908190036020019020600301805460ff191660018360088111156110f4576110f4611bc7565b02179055508060018360405161110a9190611ecf565b9081526020016040518091039020600101819055507fff043471a8f9c8a5e337376f687415b9176d0e99b40b1b9e7b82fa922948a4e88282426040516111529392919061215d565b60405180910390a16000805160206121b98339815191528260014260405161117c93929190611f9c565b60405180910390a15050565b611190611995565b6001826040516111a09190611ecf565b9081526020016040518091039020600201546000036111d15760405162461bcd60e51b815260040161031690611eeb565b60036001836040516111e39190611ecf565b9081526040519081900360200190206003015460ff16600881111561120a5761120a611bc7565b1415801561124f575060066001836040516112259190611ecf565b9081526040519081900360200190206003015460ff16600881111561124c5761124c611bc7565b14155b61126b5760405162461bcd60e51b815260040161031690611f1b565b600660018360405161127d9190611ecf565b908152604051908190036020019020600301805460ff191660018360088111156112a9576112a9611bc7565b0217905550806001836040516112bf9190611ecf565b908152602001604051809103902060070190816112dc919061209d565b507fdcafce6f0f9c04f4486711366c9dc747004327466d3bcc4b9afe0b8c20d514f182824260405161131093929190612182565b60405180910390a16000805160206121b98339815191528260064260405161117c93929190611f9c565b600060038260405161134c9190611ecf565b9081526040519081900360200190205460ff1692915050565b61136d611995565b60018260405161137d9190611ecf565b9081526020016040518091039020600201546000036113ae5760405162461bcd60e51b815260040161031690611eeb565b600180836040516113bf9190611ecf565b9081526040519081900360200190206003015460ff1660088111156113e6576113e6611bc7565b1480611428575060006001836040516113ff9190611ecf565b9081526040519081900360200190206003015460ff16600881111561142657611426611bc7565b145b6114445760405162461bcd60e51b815260040161031690611f1b565b60006001836040516114569190611ecf565b9081526040519081900360200190206003015460ff16600881111561147d5761147d611bc7565b036114f4576107086001836040516114959190611ecf565b9081526020016040518091039020600201546114b19190611f61565b4211156114f45760405162461bcd60e51b815260206004820152601160248201527014185e5b595b9d081d1a5b5959081bdd5d607a1b6044820152606401610316565b60026001836040516115069190611ecf565b908152604051908190036020019020600301805460ff1916600183600881111561153257611532611bc7565b0217905550806001836040516115489190611ecf565b90815260200160405180910390206004019081611565919061209d565b507f62b47e599c0afb346366cbb9d2f035a42e9fd5b792f5ba2714932673476668e882824260405161159993929190612182565b60405180910390a16000805160206121b98339815191528260024260405161117c93929190611f9c565b6115cb611a3f565b6001826040516115db9190611ecf565b90815260200160405180910390206002015460000361160c5760405162461bcd60e51b815260040161031690611eeb565b60018260405161161c9190611ecf565b90815260200160405180910390206040518061010001604052908160008201805461164690611fcc565b80601f016020809104026020016040519081016040528092919081815260200182805461167290611fcc565b80156116bf5780601f10611694576101008083540402835291602001916116bf565b820191906000526020600020905b8154815290600101906020018083116116a257829003601f168201915b50505091835250506001820154602082015260028201546040820152600382015460609091019060ff1660088111156116fa576116fa611bc7565b600881111561170b5761170b611bc7565b815260200160048201805461171f90611fcc565b80601f016020809104026020016040519081016040528092919081815260200182805461174b90611fcc565b80156117985780601f1061176d57610100808354040283529160200191611798565b820191906000526020600020905b81548152906001019060200180831161177b57829003601f168201915b505050918352505060058201546020820152600682015460ff16151560408201526007820180546060909201916117ce90611fcc565b80601f01602080910402602001604051908101604052809291908181526020018280546117fa90611fcc565b80156118475780601f1061181c57610100808354040283529160200191611847565b820191906000526020600020905b81548152906001019060200180831161182a57829003601f168201915b5050505050815250509050919050565b8151602081840181018051600282529282019185019190912091905280548290811061188257600080fd5b9060005260206000200160009150915050805461189e90611fcc565b80601f01602080910402602001604051908101604052809291908181526020018280546118ca90611fcc565b80156119175780601f106118ec57610100808354040283529160200191611917565b820191906000526020600020905b8154815290600101906020018083116118fa57829003601f168201915b505050505081565b611927611995565b6001600160a01b03811661198c5760405162461bcd60e51b815260206004820152602660248201527f4f776e61626c653a206e6577206f776e657220697320746865207a65726f206160448201526564647265737360d01b6064820152608401610316565b610496816119ef565b6000546001600160a01b0316331461095d5760405162461bcd60e51b815260206004820181905260248201527f4f776e61626c653a2063616c6c6572206973206e6f7420746865206f776e65726044820152606401610316565b600080546001600160a01b038381166001600160a01b0319831681178455604051919092169283917f8be0079c531659141344cd1fd0a4f28419497f9722a3daafe3b4186f6b6457e09190a35050565b60405180610100016040528060608152602001600081526020016000815260200160006008811115611a7357611a73611bc7565b81526020016060815260200160008152602001600015158152602001606081525090565b634e487b7160e01b600052604160045260246000fd5b600082601f830112611abe57600080fd5b813567ffffffffffffffff80821115611ad957611ad9611a97565b604051601f8301601f19908116603f01168101908282118183101715611b0157611b01611a97565b81604052838152866020858801011115611b1a57600080fd5b836020870160208301376000602085830101528094505050505092915050565b600060208284031215611b4c57600080fd5b813567ffffffffffffffff811115611b6357600080fd5b611b6f84828501611aad565b949350505050565b60005b83811015611b92578181015183820152602001611b7a565b50506000910152565b60008151808452611bb3816020860160208601611b77565b601f01601f19169290920160200192915050565b634e487b7160e01b600052602160045260246000fd5b60098110611bfb57634e487b7160e01b600052602160045260246000fd5b9052565b6000610100808352611c138184018c611b9b565b9050896020840152886040840152611c2e6060840189611bdd565b8281036080840152611c408188611b9b565b90508560a084015284151560c084015282810360e0840152611c628185611b9b565b9b9a5050505050505050505050565b60008060408385031215611c8457600080fd5b823567ffffffffffffffff80821115611c9c57600080fd5b611ca886838701611aad565b93506020850135915080821115611cbe57600080fd5b50611ccb85828601611aad565b9150509250929050565b60006101008251818552611ceb82860182611b9b565b91505060208301516020850152604083015160408501526060830151611d146060860182611bdd565b5060808301518482036080860152611d2c8282611b9b565b91505060a083015160a085015260c0830151151560c085015260e083015184820360e0860152611d5c8282611b9b565b95945050505050565b6000602080830181845280855180835260408601915060408160051b870101925083870160005b82811015611dba57603f19888603018452611da8858351611cd5565b94509285019290850190600101611d8c565b5092979650505050505050565b600080600060608486031215611ddc57600080fd5b833567ffffffffffffffff80821115611df457600080fd5b611e0087838801611aad565b94506020860135915080821115611e1657600080fd5b50611e2386828701611aad565b925050604084013590509250925092565b60008060408385031215611e4757600080fd5b823567ffffffffffffffff811115611e5e57600080fd5b611e6a85828601611aad565b95602094909401359450505050565b602081526000611e8c6020830184611cd5565b9392505050565b602081526000611e8c6020830184611b9b565b600060208284031215611eb857600080fd5b81356001600160a01b0381168114611e8c57600080fd5b60008251611ee1818460208701611b77565b9190910192915050565b60208082526016908201527514d95cdcda5bdb88191bd95cc81b9bdd08195e1a5cdd60521b604082015260600190565b602080825260169082015275496e76616c69642073657373696f6e2073746174757360501b604082015260600190565b634e487b7160e01b600052601160045260246000fd5b80820180821115611f7457611f74611f4b565b92915050565b604081526000611f8d6040830185611b9b565b90508260208301529392505050565b606081526000611faf6060830186611b9b565b9050611fbe6020830185611bdd565b826040830152949350505050565b600181811c90821680611fe057607f821691505b60208210810361200057634e487b7160e01b600052602260045260246000fd5b50919050565b828152604060208201526000611b6f6040830184611b9b565b634e487b7160e01b600052603260045260246000fd5b60006001820161204757612047611f4b565b5060010190565b601f82111561209857600081815260208120601f850160051c810160208610156120755750805b601f850160051c820191505b8181101561209457828155600101612081565b5050505b505050565b815167ffffffffffffffff8111156120b7576120b7611a97565b6120cb816120c58454611fcc565b8461204e565b602080601f83116001811461210057600084156120e85750858301515b600019600386901b1c1916600185901b178555612094565b600085815260208120601f198616915b8281101561212f57888601518255948401946001909101908401612110565b508582101561214d5787850151600019600388901b60f8161c191681555b5050505050600190811b01905550565b6060815260006121706060830186611b9b565b60208301949094525060400152919050565b6060815260006121956060830186611b9b565b82810360208401526121a78186611b9b565b91505082604083015294935050505056fe507cf7f6910c530debf1de94473292dda388b3ade82eb12887945d58d62cf240a26469706673582212205fb9e60242401ab2e1bbdba43f5a7d51bb2eab7f7602757cf827517a92e463f964736f6c63430008140033",
  "linkReferences": {},
  "deployedLinkReferences": {}
}