{"contracts/PaymentTracker.sol":{"PaymentTracker":{"abi":[{"inputs":[],"stateMutability":"nonpayable","type":"constructor"},{"anonymous":false,"inputs":[{"indexed":true,"internalType":"string","name":"kraPin","type":"string"},{"indexed":false,"internalType":"uint256","name":"timestamp","type":"uint256"},{"indexed":false,"internalType":"string","name":"sessionId","type":"string"}],"name":"CredentialsDeleted","type":"event"},{"anonymous":false,"inputs":[{"indexed":true,"internalType":"address","name":"previousOwner","type":"address"},{"indexed":true,"internalType":"address","name":"newOwner","type":"address"}],"name":"OwnershipTransferred","type":"event"},{"anonymous":false,"inputs":[{"indexed":false,"internalType":"string","name":"sessionId","type":"string"},{"indexed":false,"internalType":"string","name":"reason","type":"string"},{"indexed":false,"internalType":"uint256","name":"timestamp","type":"uint256"}],"name":"PaymentFailed","type":"event"},{"anonymous":false,"inputs":[{"indexed":false,"internalType":"string","name":"sessionId","type":"string"},{"indexed":false,"internalType":"uint256","name":"amount","type":"uint256"},{"indexed":false,"internalType":"uint256","name":"timestamp","type":"uint256"}],"name":"PaymentInitiated","type":"event"},{"anonymous":false,"inputs":[{"indexed":false,"internalType":"string","name":"sessionId","type":"string"},{"indexed":false,"internalType":"string","name":"paymentCode","type":"string"},{"indexed":false,"internalType":"uint256","name":"timestamp","type":"uint256"}],"name":"PaymentReceived","type":"event"},{"anonymous":false,"inputs":[{"indexed":false,"internalType":"string","name":"sessionId","type":"string"},{"indexed":false,"internalType":"string","name":"reason","type":"string"},{"indexed":false,"internalType":"uint256","name":"timestamp","type":"uint256"}],"name":"SessionAbandoned","type":"event"},{"anonymous":false,"inputs":[{"indexed":false,"internalType":"string","name":"sessionId","type":"string"},{"indexed":false,"internalType":"uint256","name":"timestamp","type":"uint256"}],"name":"SessionCompleted","type":"event"},{"anonymous":false,"inputs":[{"indexed":true,"internalType":"string","name":"kraPin","type":"string"},{"indexed":false,"internalType":"string","name":"sessionId","type":"string"},{"indexed":false,"internalType":"uint256","name":"amount","type":"uint256"},{"indexed":false,"internalType":"uint256","name":"timestamp","type":"uint256"}],"name":"SessionCreated","type":"event"},{"anonymous":false,"inputs":[{"indexed":false,"internalType":"string","name":"sessionId","type":"string"},{"indexed":false,"internalType":"uint256","name":"timestamp","type":"uint256"}],"name":"SessionExpired","type":"event"},{"anonymous":false,"inputs":[{"indexed":false,"internalType":"string","name":"sessionId","type":"string"},{"indexed":false,"internalType":"enum PaymentTracker.SessionStatus","name":"status","type":"uint8"},{"indexed":false,"internalType":"uint256","name":"timestamp","type":"uint256"}],"name":"SessionStatusUpdated","type":"event"},{"inputs":[],"name":"PAYMENT_TIMEOUT","outputs":[{"internalType":"uint256","name":"","type":"uint256"}],"stateMutability":"view","type":"function"},{"inputs":[],"name":"SESSION_TIMEOUT","outputs":[{"internalType":"uint256","name":"","type":"uint256"}],"stateMutability":"view","type":"function"},{"inputs":[{"internalType":"string","name":"sessionId","type":"string"},{"internalType":"string","name":"reason","type":"string"}],"name":"abandonSession","outputs":[],"stateMutability":"nonpayable","type":"function"},{"inputs":[{"internalType":"string","name":"sessionId","type":"string"}],"name":"checkSessionTimeout","outputs":[],"stateMutability":"nonpayable","type":"function"},{"inputs":[{"internalType":"string","name":"sessionId","type":"string"}],"name":"completeSession","outputs":[],"stateMutability":"nonpayable","type":"function"},{"inputs":[{"internalType":"string","name":"sessionId","type":"string"},{"internalType":"string","name":"kraPin","type":"string"},{"internalType":"uint256","name":"amount","type":"uint256"}],"name":"createSession","outputs":[],"stateMutability":"nonpayable","type":"function"},{"inputs":[{"internalType":"string","name":"kraPin","type":"string"},{"internalType":"string","name":"sessionId","type":"string"}],"name":"deleteCredentials","outputs":[],"stateMutability":"nonpayable","type":"function"},{"inputs":[{"internalType":"string","name":"","type":"string"}],"name":"deletedCredentials","outputs":[{"internalType":"bool","name":"","type":"bool"}],"stateMutability":"view","type":"function"},{"inputs":[{"internalType":"string","name":"","type":"string"},{"internalType":"uint256","name":"","type":"uint256"}],"name":"filingHistory","outputs":[{"internalType":"string","name":"","type":"string"}],"stateMutability":"view","type":"function"},{"inputs":[{"internalType":"string","name":"kraPin","type":"string"}],"name":"getFilingHistory","outputs":[{"components":[{"internalType":"string","name":"kraPin","type":"string"},{"internalType":"uint256","name":"amount","type":"uint256"},{"internalType":"uint256","name":"timestamp","type":"uint256"},{"internalType":"enum PaymentTracker.SessionStatus","name":"status","type":"uint8"},{"internalType":"string","name":"paymentCode","type":"string"},{"internalType":"uint256","name":"attempts","type":"uint256"},{"internalType":"bool","name":"credentialsDeleted","type":"bool"},{"internalType":"string","name":"abandonReason","type":"string"}],"internalType":"struct PaymentTracker.Session[]","name":"","type":"tuple[]"}],"stateMutability":"view","type":"function"},{"inputs":[{"internalType":"string","name":"sessionId","type":"string"}],"name":"getSession","outputs":[{"components":[{"internalType":"string","name":"kraPin","type":"string"},{"internalType":"uint256","name":"amount","type":"uint256"},{"internalType":"uint256","name":"timestamp","type":"uint256"},{"internalType":"enum PaymentTracker.SessionStatus","name":"status","type":"uint8"},{"internalType":"string","name":"paymentCode","type":"string"},{"internalType":"uint256","name":"attempts","type":"uint256"},{"internalType":"bool","name":"credentialsDeleted","type":"bool"},{"internalType":"string","name":"abandonReason","type":"string"}],"internalType":"struct PaymentTracker.Session","name":"","type":"tuple"}],"stateMutability":"view","type":"function"},{"inputs":[{"internalType":"string","name":"sessionId","type":"string"},{"internalType":"uint256","name":"amount","type":"uint256"}],"name":"initiatePayment","outputs":[],"stateMutability":"nonpayable","type":"function"},{"inputs":[{"internalType":"string","name":"kraPin","type":"string"}],"name":"isCredentialDeleted","outputs":[{"internalType":"bool","name":"","type":"bool"}],"stateMutability":"view","type":"function"},{"inputs":[],"name":"owner","outputs":[{"internalType":"address","name":"","type":"address"}],"stateMutability":"view","type":"function"},{"inputs":[{"internalType":"string","name":"sessionId","type":"string"},{"internalType":"string","name":"paymentCode","type":"string"}],"name":"recordPayment","outputs":[],"stateMutability":"nonpayable","type":"function"},{"inputs":[],"name":"renounceOwnership","outputs":[],"stateMutability":"nonpayable","type":"function"},{"inputs":[{"internalType":"string","name":"","type":"string"}],"name":"sessions","outputs":[{"internalType":"string","name":"kraPin","type":"string"},{"internalType":"uint256","name":"amount","type":"uint256"},{"internalType":"uint256","name":"timestamp","type":"uint256"},{"internalType":"enum PaymentTracker.SessionStatus","name":"status","type":"uint8"},{"internalType":"string","name":"paymentCode","type":"string"},{"internalType":"uint256","name":"attempts","type":"uint256"},{"internalType":"bool","name":"credentialsDeleted","type":"bool"},{"internalType":"string","name":"abandonReason","type":"string"}],"stateMutability":"view","type":"function"},{"inputs":[{"internalType":"address","name":"newOwner","type":"address"}],"name":"transferOwnership","outputs":[],"stateMutability":"nonpayable","type":"function"}],"evm":{"bytecode":{"linkReferences":{},"object":"608060405234801561001057600080fd5b5061001a3361001f565b61006f565b600080546001600160a01b038381166001600160a01b0319831681178455604051919092169283917f8be0079c531659141344cd1fd0a4f28419497f9722a3daafe3b4186f6b6457e09190a35050565b61220e8061007e6000396000f3fe608060405234801561001057600080fd5b50600436106101165760003560e01c8063bbead320116100a2578063c33bd9fb11610071578063c33bd9fb14610241578063c526cba11461026f578063cf70263614610282578063df2a93ae146102a2578063f2fde38b146102c257600080fd5b8063bbead320146101ef578063bf56354f14610202578063bfe5d12714610215578063c083ad991461023857600080fd5b80635dd1c512116100e95780635dd1c51214610186578063715018a6146101995780638da5cb5b146101a15780639ccc81f9146101bc578063a24d2203146101dc57600080fd5b8063218c4da01461011b578063239ce95c146101375780634f4ba3481461014c578063549ffdd314610173575b600080fd5b61012461070881565b6040519081526020015b60405180910390f35b61014a610145366004611b3a565b6102d5565b005b61015f61015a366004611b3a565b610499565b60405161012e989796959493929190611bff565b61014a610181366004611b3a565b61068d565b61014a610194366004611c71565b6107f1565b61014a61094b565b6000546040516001600160a01b03909116815260200161012e565b6101cf6101ca366004611b3a565b61095f565b60405161012e9190611d65565b61014a6101ea366004611dc7565b610d4c565b61014a6101fd366004611e34565b611018565b61014a610210366004611c71565b611188565b610228610223366004611b3a565b61133a565b604051901515815260200161012e565b610124611c2081565b61022861024f366004611b3a565b805160208183018101805160038252928201919093012091525460ff1681565b61014a61027d366004611c71565b611365565b610295610290366004611b3a565b6115c3565b60405161012e9190611e79565b6102b56102b0366004611e34565b611857565b60405161012e9190611e93565b61014a6102d0366004611ea6565b61191f565b6001816040516102e59190611ecf565b90815260200160405180910390206002015460000361031f5760405162461bcd60e51b815260040161031690611eeb565b60405180910390fd5b60036001826040516103319190611ecf565b9081526040519081900360200190206003015460ff16600881111561035857610358611bc7565b1415801561039d575060076001826040516103739190611ecf565b9081526040519081900360200190206003015460ff16600881111561039a5761039a611bc7565b14155b6103b95760405162461bcd60e51b815260040161031690611f1b565b611c206001826040516103cc9190611ecf565b9081526020016040518091039020600201546103e89190611f61565b4211156104965760076001826040516104019190611ecf565b908152604051908190036020019020600301805460ff1916600183600881111561042d5761042d611bc7565b02179055507f62d9213245d7f343a8a9b0cd8d1e8301cf9e14b17270dd869f6b3a3bb5da6a808142604051610463929190611f7a565b60405180910390a16000805160206121b98339815191528160074260405161048d93929190611f9c565b60405180910390a15b50565b80516020818301810180516001825292820191909301209152805481906104bf90611fcc565b80601f01602080910402602001604051908101604052809291908181526020018280546104eb90611fcc565b80156105385780601f1061050d57610100808354040283529160200191610538565b820191906000526020600020905b81548152906001019060200180831161051b57829003601f168201915b5050506001840154600285015460038601546004870180549697939692955060ff90911693509061056890611fcc565b80601f016020809104026020016040519081016040528092919081815260200182805461059490611fcc565b80156105e15780601f106105b6576101008083540402835291602001916105e1565b820191906000526020600020905b8154815290600101906020018083116105c457829003601f168201915b50505050600583015460068401546007850180549495929460ff90921693509061060a90611fcc565b80601f016020809104026020016040519081016040528092919081815260200182805461063690611fcc565b80156106835780601f1061065857610100808354040283529160200191610683565b820191906000526020600020905b81548152906001019060200180831161066657829003601f168201915b5050505050905088565b610695611995565b6001816040516106a59190611ecf565b9081526020016040518091039020600201546000036106d65760405162461bcd60e51b815260040161031690611eeb565b60026001826040516106e89190611ecf565b9081526040519081900360200190206003015460ff16600881111561070f5761070f611bc7565b146107535760405162461bcd60e51b815260206004820152601460248201527314185e5b595b9d081b9bdd081c9958d95a5d995960621b6044820152606401610316565b60036001826040516107659190611ecf565b908152604051908190036020019020600301805460ff1916600183600881111561079157610791611bc7565b02179055507f6e47dd1008415e2c3f9e85c9164e9132873741bd195491f6489f1ff732fdf89981426040516107c7929190611f7a565b60405180910390a16000805160206121b98339815191528160034260405161048d93929190611f9c565b6107f9611995565b6003826040516108099190611ecf565b9081526040519081900360200190205460ff16156108695760405162461bcd60e51b815260206004820152601b60248201527f43726564656e7469616c7320616c72656164792064656c6574656400000000006044820152606401610316565b600160038360405161087b9190611ecf565b908152604051908190036020018120805492151560ff19909316929092179091556001906108aa908390611ecf565b9081526020016040518091039020600201546000146108f857600180826040516108d49190611ecf565b908152604051908190036020019020600601805491151560ff199092169190911790555b816040516109069190611ecf565b60405180910390207f218a20882ace47e67a141f2fbdaa0eca135febe4a2e813cc17427621ba1dd83a428360405161093f929190612006565b60405180910390a25050565b610953611995565b61095d60006119ef565b565b606060006002836040516109739190611ecf565b9081526020016040518091039020805480602002602001604051908101604052809291908181526020016000905b82821015610a4d5783829060005260206000200180546109c090611fcc565b80601f01602080910402602001604051908101604052809291908181526020018280546109ec90611fcc565b8015610a395780601f10610a0e57610100808354040283529160200191610a39565b820191906000526020600020905b815481529060010190602001808311610a1c57829003601f168201915b5050505050815260200190600101906109a1565b5050505090506000815167ffffffffffffffff811115610a6f57610a6f611a97565b604051908082528060200260200182016040528015610aa857816020015b610a95611a3f565b815260200190600190039081610a8d5790505b50905060005b8251811015610d44576001838281518110610acb57610acb61201f565b6020026020010151604051610ae09190611ecf565b908152602001604051809103902060405180610100016040529081600082018054610b0a90611fcc565b80601f0160208091040260200160405190810160405280929190818152602001828054610b3690611fcc565b8015610b835780601f10610b5857610100808354040283529160200191610b83565b820191906000526020600020905b815481529060010190602001808311610b6657829003601f168201915b50505091835250506001820154602082015260028201546040820152600382015460609091019060ff166008811115610bbe57610bbe611bc7565b6008811115610bcf57610bcf611bc7565b8152602001600482018054610be390611fcc565b80601f0160208091040260200160405190810160405280929190818152602001828054610c0f90611fcc565b8015610c5c5780601f10610c3157610100808354040283529160200191610c5c565b820191906000526020600020905b815481529060010190602001808311610c3f57829003601f168201915b505050918352505060058201546020820152600682015460ff1615156040820152600782018054606090920191610c9290611fcc565b80601f0160208091040260200160405190810160405280929190818152602001828054610cbe90611fcc565b8015610d0b5780601f10610ce057610100808354040283529160200191610d0b565b820191906000526020600020905b815481529060010190602001808311610cee57829003601f168201915b505050505081525050828281518110610d2657610d2661201f565b60200260200101819052508080610d3c90612035565b915050610aae565b509392505050565b610d54611995565b600183604051610d649190611ecf565b908152602001604051809103902060020154600014610dbe5760405162461bcd60e51b815260206004820152601660248201527553657373696f6e20616c72656164792065786973747360501b6044820152606401610316565b600382604051610dce9190611ecf565b9081526040519081900360200190205460ff1615610e2e5760405162461bcd60e51b815260206004820152601860248201527f43726564656e7469616c7320776572652064656c6574656400000000000000006044820152606401610316565b60405180610100016040528083815260200182815260200142815260200160006008811115610e5f57610e5f611bc7565b81526020016040518060200160405280600081525081526020016001815260200160001515815260200160405180602001604052806000815250815250600184604051610eac9190611ecf565b90815260405190819003602001902081518190610ec9908261209d565b50602082015181600101556040820151816002015560608201518160030160006101000a81548160ff02191690836008811115610f0857610f08611bc7565b021790555060808201516004820190610f21908261209d565b5060a0820151600582015560c082015160068201805460ff191691151591909117905560e08201516007820190610f58908261209d565b50905050600282604051610f6c9190611ecf565b908152604051602091819003820190208054600181018255600091825291902001610f97848261209d565b5081604051610fa69190611ecf565b60405180910390207fc709b8e5ba9741f5fa4e2881570946fcf49a1f554f549fa7e1bbda80cc2b2935848342604051610fe19392919061215d565b60405180910390a26000805160206121b98339815191528360004260405161100b93929190611f9c565b60405180910390a1505050565b611020611995565b6001826040516110309190611ecf565b9081526020016040518091039020600201546000036110615760405162461bcd60e51b815260040161031690611eeb565b60006001836040516110739190611ecf565b9081526040519081900360200190206003015460ff16600881111561109a5761109a611bc7565b146110b75760405162461bcd60e51b815260040161031690611f1b565b600180836040516110c89190611ecf565b908152604051908190036020019020600301805460ff191660018360088111156110f4576110f4611bc7565b02179055508060018360405161110a9190611ecf565b9081526020016040518091039020600101819055507fff043471a8f9c8a5e337376f687415b9176d0e99b40b1b9e7b82fa922948a4e88282426040516111529392919061215d565b60405180910390a16000805160206121b98339815191528260014260405161117c93929190611f9c565b60405180910390a15050565b611190611995565b6001826040516111a09190611ecf565b9081526020016040518091039020600201546000036111d15760405162461bcd60e51b815260040161031690611eeb565b60036001836040516111e39190611ecf565b9081526040519081900360200190206003015460ff16600881111561120a5761120a611bc7565b1415801561124f575060066001836040516112259190611ecf565b9081526040519081900360200190206003015460ff16600881111561124c5761124c611bc7565b14155b61126b5760405162461bcd60e51b815260040161031690611f1b565b600660018360405161127d9190611ecf565b908152604051908190036020019020600301805460ff191660018360088111156112a9576112a9611bc7565b0217905550806001836040516112bf9190611ecf565b908152602001604051809103902060070190816112dc919061209d565b507fdcafce6f0f9c04f4486711366c9dc747004327466d3bcc4b9afe0b8c20d514f182824260405161131093929190612182565b60405180910390a16000805160206121b98339815191528260064260405161117c93929190611f9c565b600060038260405161134c9190611ecf565b9081526040519081900360200190205460ff1692915050565b61136d611995565b60018260405161137d9190611ecf565b9081526020016040518091039020600201546000036113ae5760405162461bcd60e51b815260040161031690611eeb565b600180836040516113bf9190611ecf565b9081526040519081900360200190206003015460ff1660088111156113e6576113e6611bc7565b1480611428575060006001836040516113ff9190611ecf565b9081526040519081900360200190206003015460ff16600881111561142657611426611bc7565b145b6114445760405162461bcd60e51b815260040161031690611f1b565b60006001836040516114569190611ecf565b9081526040519081900360200190206003015460ff16600881111561147d5761147d611bc7565b036114f4576107086001836040516114959190611ecf565b9081526020016040518091039020600201546114b19190611f61565b4211156114f45760405162461bcd60e51b815260206004820152601160248201527014185e5b595b9d081d1a5b5959081bdd5d607a1b6044820152606401610316565b60026001836040516115069190611ecf565b908152604051908190036020019020600301805460ff1916600183600881111561153257611532611bc7565b0217905550806001836040516115489190611ecf565b90815260200160405180910390206004019081611565919061209d565b507f62b47e599c0afb346366cbb9d2f035a42e9fd5b792f5ba2714932673476668e882824260405161159993929190612182565b60405180910390a16000805160206121b98339815191528260024260405161117c93929190611f9c565b6115cb611a3f565b6001826040516115db9190611ecf565b90815260200160405180910390206002015460000361160c5760405162461bcd60e51b815260040161031690611eeb565b60018260405161161c9190611ecf565b90815260200160405180910390206040518061010001604052908160008201805461164690611fcc565b80601f016020809104026020016040519081016040528092919081815260200182805461167290611fcc565b80156116bf5780601f10611694576101008083540402835291602001916116bf565b820191906000526020600020905b8154815290600101906020018083116116a257829003601f168201915b50505091835250506001820154602082015260028201546040820152600382015460609091019060ff1660088111156116fa576116fa611bc7565b600881111561170b5761170b611bc7565b815260200160048201805461171f90611fcc565b80601f016020809104026020016040519081016040528092919081815260200182805461174b90611fcc565b80156117985780601f1061176d57610100808354040283529160200191611798565b820191906000526020600020905b81548152906001019060200180831161177b57829003601f168201915b505050918352505060058201546020820152600682015460ff16151560408201526007820180546060909201916117ce90611fcc565b80601f01602080910402602001604051908101604052809291908181526020018280546117fa90611fcc565b80156118475780601f1061181c57610100808354040283529160200191611847565b820191906000526020600020905b81548152906001019060200180831161182a57829003601f168201915b5050505050815250509050919050565b8151602081840181018051600282529282019185019190912091905280548290811061188257600080fd5b9060005260206000200160009150915050805461189e90611fcc565b80601f01602080910402602001604051908101604052809291908181526020018280546118ca90611fcc565b80156119175780601f106118ec57610100808354040283529160200191611917565b820191906000526020600020905b8154815290600101906020018083116118fa57829003601f168201915b505050505081565b611927611995565b6001600160a01b03811661198c5760405162461bcd60e51b815260206004820152602660248201527f4f776e61626c653a206e6577206f776e657220697320746865207a65726f206160448201526564647265737360d01b6064820152608401610316565b610496816119ef565b6000546001600160a01b0316331461095d5760405162461bcd60e51b815260206004820181905260248201527f4f776e61626c653a2063616c6c6572206973206e6f7420746865206f776e65726044820152606401610316565b600080546001600160a01b038381166001600160a01b0319831681178455604051919092169283917f8be0079c531659141344cd1fd0a4f28419497f9722a3daafe3b4186f6b6457e09190a35050565b60405180610100016040528060608152602001600081526020016000815260200160006008811115611a7357611a73611bc7565b81526020016060815260200160008152602001600015158152602001606081525090565b634e487b7160e01b600052604160045260246000fd5b600082601f830112611abe57600080fd5b813567ffffffffffffffff80821115611ad957611ad9611a97565b604051601f8301601f19908116603f01168101908282118183101715611b0157611b01611a97565b81604052838152866020858801011115611b1a57600080fd5b836020870160208301376000602085830101528094505050505092915050565b600060208284031215611b4c57600080fd5b813567ffffffffffffffff811115611b6357600080fd5b611b6f84828501611aad565b949350505050565b60005b83811015611b92578181015183820152602001611b7a565b50506000910152565b60008151808452611bb3816020860160208601611b77565b601f01601f19169290920160200192915050565b634e487b7160e01b600052602160045260246000fd5b60098110611bfb57634e487b7160e01b600052602160045260246000fd5b9052565b6000610100808352611c138184018c611b9b565b9050896020840152886040840152611c2e6060840189611bdd565b8281036080840152611c408188611b9b565b90508560a084015284151560c084015282810360e0840152611c628185611b9b565b9b9a5050505050505050505050565b60008060408385031215611c8457600080fd5b823567ffffffffffffffff80821115611c9c57600080fd5b611ca886838701611aad565b93506020850135915080821115611cbe57600080fd5b50611ccb85828601611aad565b9150509250929050565b60006101008251818552611ceb82860182611b9b565b91505060208301516020850152604083015160408501526060830151611d146060860182611bdd565b5060808301518482036080860152611d2c8282611b9b565b91505060a083015160a085015260c0830151151560c085015260e083015184820360e0860152611d5c8282611b9b565b95945050505050565b6000602080830181845280855180835260408601915060408160051b870101925083870160005b82811015611dba57603f19888603018452611da8858351611cd5565b94509285019290850190600101611d8c565b5092979650505050505050565b600080600060608486031215611ddc57600080fd5b833567ffffffffffffffff80821115611df457600080fd5b611e0087838801611aad565b94506020860135915080821115611e1657600080fd5b50611e2386828701611aad565b925050604084013590509250925092565b60008060408385031215611e4757600080fd5b823567ffffffffffffffff811115611e5e57600080fd5b611e6a85828601611aad565b95602094909401359450505050565b602081526000611e8c6020830184611cd5565b9392505050565b602081526000611e8c6020830184611b9b565b600060208284031215611eb857600080fd5b81356001600160a01b0381168114611e8c57600080fd5b60008251611ee1818460208701611b77565b9190910192915050565b60208082526016908201527514d95cdcda5bdb88191bd95cc81b9bdd08195e1a5cdd60521b604082015260600190565b602080825260169082015275496e76616c69642073657373696f6e2073746174757360501b604082015260600190565b634e487b7160e01b600052601160045260246000fd5b80820180821115611f7457611f74611f4b565b92915050565b604081526000611f8d6040830185611b9b565b90508260208301529392505050565b606081526000611faf6060830186611b9b565b9050611fbe6020830185611bdd565b826040830152949350505050565b600181811c90821680611fe057607f821691505b60208210810361200057634e487b7160e01b600052602260045260246000fd5b50919050565b828152604060208201526000611b6f6040830184611b9b565b634e487b7160e01b600052603260045260246000fd5b60006001820161204757612047611f4b565b5060010190565b601f82111561209857600081815260208120601f850160051c810160208610156120755750805b601f850160051c820191505b8181101561209457828155600101612081565b5050505b505050565b815167ffffffffffffffff8111156120b7576120b7611a97565b6120cb816120c58454611fcc565b8461204e565b602080601f83116001811461210057600084156120e85750858301515b600019600386901b1c1916600185901b178555612094565b600085815260208120601f198616915b8281101561212f57888601518255948401946001909101908401612110565b508582101561214d5787850151600019600388901b60f8161c191681555b5050505050600190811b01905550565b6060815260006121706060830186611b9b565b60208301949094525060400152919050565b6060815260006121956060830186611b9b565b82810360208401526121a78186611b9b565b91505082604083015294935050505056fe507cf7f6910c530debf1de94473292dda388b3ade82eb12887945d58d62cf240a26469706673582212205fb9e60242401ab2e1bbdba43f5a7d51bb2eab7f7602757cf827517a92e463f964736f6c63430008140033","opcodes":"PUSH1 0x80 PUSH1 0x40 MSTORE CALLVALUE DUP1 ISZERO PUSH2 0x10 JUMPI PUSH1 0x0 DUP1 REVERT JUMPDEST POP PUSH2 0x1A CALLER PUSH2 0x1F JUMP JUMPDEST PUSH2 0x6F JUMP JUMPDEST PUSH1 0x0 DUP1 SLOAD PUSH1 0x1 PUSH1 0x1 PUSH1 0xA0 SHL SUB DUP4 DUP2 AND PUSH1 0x1 PUSH1 0x1 PUSH1 0xA0 SHL SUB NOT DUP4 AND DUP2 OR DUP5 SSTORE PUSH1 0x40 MLOAD SWAP2 SWAP1 SWAP3 AND SWAP3 DUP4 SWAP2 PUSH32 0x8BE0079C531659141344CD1FD0A4F28419497F9722A3DAAFE3B4186F6B6457E0 SWAP2 SWAP1 LOG3 POP POP JUMP JUMPDEST PUSH2 0x220E DUP1 PUSH2 0x7E PUSH1 0x0 CODECOPY PUSH1 0x0 RETURN INVALID PUSH1 0x80 PUSH1 0x40 MSTORE CALLVALUE DUP1 ISZERO PUSH2 0x10 JUMPI PUSH1 0x0 DUP1 REVERT JUMPDEST POP PUSH1 0x4 CALLDATASIZE LT PUSH2 0x116 JUMPI PUSH1 0x0 CALLDATALOAD PUSH1 0xE0 SHR DUP1 PUSH4 0xBBEAD320 GT PUSH2 0xA2 JUMPI DUP1 PUSH4 0xC33BD9FB GT PUSH2 0x71 JUMPI DUP1 PUSH4 0xC33BD9FB EQ PUSH2 0x241 JUMPI DUP1 PUSH4 0xC526CBA1 EQ PUSH2 0x26F JUMPI DUP1 PUSH4 0xCF702636 EQ PUSH2 0x282 JUMPI DUP1 PUSH4 0xDF2A93AE EQ PUSH2 0x2A2 JUMPI DUP1 PUSH4 0xF2FDE38B EQ PUSH2 0x2C2 JUMPI PUSH1 0x0 DUP1 REVERT JUMPDEST DUP1 PUSH4 0xBBEAD320 EQ PUSH2 0x1EF JUMPI DUP1 PUSH4 0xBF56354F EQ PUSH2 0x202 JUMPI DUP1 PUSH4 0xBFE5D127 EQ PUSH2 0x215 JUMPI DUP1 PUSH4 0xC083AD99 EQ PUSH2 0x238 JUMPI PUSH1 0x0 DUP1 REVERT JUMPDEST DUP1 PUSH4 0x5DD1C512 GT PUSH2 0xE9 JUMPI DUP1 PUSH4 0x5DD1C512 EQ PUSH2 0x186 JUMPI DUP1 PUSH4 0x715018A6 EQ PUSH2 0x199 JUMPI DUP1 PUSH4 0x8DA5CB5B EQ PUSH2 0x1A1 JUMPI DUP1 PUSH4 0x9CCC81F9 EQ PUSH2 0x1BC JUMPI DUP1 PUSH4 0xA24D2203 EQ PUSH2 0x1DC JUMPI PUSH1 0x0 DUP1 REVERT JUMPDEST DUP1 PUSH4 0x218C4DA0 EQ PUSH2 0x11B JUMPI DUP1 PUSH4 0x239CE95C EQ PUSH2 0x137 JUMPI DUP1 PUSH4 0x4F4BA348 EQ PUSH2 0x14C JUMPI DUP1 PUSH4 0x549FFDD3 EQ PUSH2 0x173 JUMPI JUMPDEST PUSH1 0x0 DUP1 REVERT JUMPDEST PUSH2 0x124 PUSH2 0x708 DUP2 JUMP JUMPDEST PUSH1 0x40 MLOAD SWAP1 DUP2 MSTORE PUSH1 0x20 ADD JUMPDEST PUSH1 0x40 MLOAD DUP1 SWAP2 SUB SWAP1 RETURN JUMPDEST PUSH2 0x14A PUSH2 0x145 CALLDATASIZE PUSH1 0x4 PUSH2 0x1B3A JUMP JUMPDEST PUSH2 0x2D5 JUMP JUMPDEST STOP JUMPDEST PUSH2 0x15F PUSH2 0x15A CALLDATASIZE PUSH1 0x4 PUSH2 0x1B3A JUMP JUMPDEST PUSH2 0x499 JUMP JUMPDEST PUSH1 0x40 MLOAD PUSH2 0x12E SWAP9 SWAP8 SWAP7 SWAP6 SWAP5 SWAP4 SWAP3 SWAP2 SWAP1 PUSH2 0x1BFF JUMP JUMPDEST PUSH2 0x14A PUSH2 0x181 CALLDATASIZE PUSH1 0x4 PUSH2 0x1B3A JUMP JUMPDEST PUSH2 0x68D JUMP JUMPDEST PUSH2 0x14A PUSH2 0x194 CALLDATASIZE PUSH1 0x4 PUSH2 0x1C71 JUMP JUMPDEST PUSH2 0x7F1 JUMP JUMPDEST PUSH2 0x14A PUSH2 0x94B JUMP JUMPDEST PUSH1 0x0 SLOAD PUSH1 0x40 MLOAD PUSH1 0x1 PUSH1 0x1 PUSH1 0xA0 SHL SUB SWAP1 SWAP2 AND DUP2 MSTORE PUSH1 0x20 ADD PUSH2 0x12E JUMP JUMPDEST PUSH2 0x1CF PUSH2 0x1CA CALLDATASIZE PUSH1 0x4 PUSH2 0x1B3A JUMP JUMPDEST PUSH2 0x95F JUMP JUMPDEST PUSH1 0x40 MLOAD PUSH2 0x12E SWAP2 SWAP1 PUSH2 0x1D65 JUMP JUMPDEST PUSH2 0x14A PUSH2 0x1EA CALLDATASIZE PUSH1 0x4 PUSH2 0x1DC7 JUMP JUMPDEST PUSH2 0xD4C JUMP JUMPDEST PUSH2 0x14A PUSH2 0x1FD CALLDATASIZE PUSH1 0x4 PUSH2 0x1E34 JUMP JUMPDEST PUSH2 0x1018 JUMP JUMPDEST PUSH2 0x14A PUSH2 0x210 CALLDATASIZE PUSH1 0x4 PUSH2 0x1C71 JUMP JUMPDEST PUSH2 0x1188 JUMP JUMPDEST PUSH2 0x228 PUSH2 0x223 CALLDATASIZE PUSH1 0x4 PUSH2 0x1B3A JUMP JUMPDEST PUSH2 0x133A JUMP JUMPDEST PUSH1 0x40 MLOAD SWAP1 ISZERO ISZERO DUP2 MSTORE PUSH1 0x20 ADD PUSH2 0x12E JUMP JUMPDEST PUSH2 0x124 PUSH2 0x1C20 DUP2 JUMP JUMPDEST PUSH2 0x228 PUSH2 0x24F CALLDATASIZE PUSH1 0x4 PUSH2 0x1B3A JUMP JUMPDEST DUP1 MLOAD PUSH1 0x20 DUP2 DUP4 ADD DUP2 ADD DUP1 MLOAD PUSH1 0x3 DUP3 MSTORE SWAP3 DUP3 ADD SWAP2 SWAP1 SWAP4 ADD KECCAK256 SWAP2 MSTORE SLOAD PUSH1 0xFF AND DUP2 JUMP JUMPDEST PUSH2 0x14A PUSH2 0x27D CALLDATASIZE PUSH1 0x4 PUSH2 0x1C71 JUMP JUMPDEST PUSH2 0x1365 JUMP JUMPDEST PUSH2 0x295 PUSH2 0x290 CALLDATASIZE PUSH1 0x4 PUSH2 0x1B3A JUMP JUMPDEST PUSH2 0x15C3 JUMP JUMPDEST PUSH1 0x40 MLOAD PUSH2 0x12E SWAP2 SWAP1 PUSH2 0x1E79 JUMP JUMPDEST PUSH2 0x2B5 PUSH2 0x2B0 CALLDATASIZE PUSH1 0x4 PUSH2 0x1E34 JUMP JUMPDEST PUSH2 0x1857 JUMP JUMPDEST PUSH1 0x40 MLOAD PUSH2 0x12E SWAP2 SWAP1 PUSH2 0x1E93 JUMP JUMPDEST PUSH2 0x14A PUSH2 0x2D0 CALLDATASIZE PUSH1 0x4 PUSH2 0x1EA6 JUMP JUMPDEST PUSH2 0x191F JUMP JUMPDEST PUSH1 0x1 DUP2 PUSH1 0x40 MLOAD PUSH2 0x2E5 SWAP2 SWAP1 PUSH2 0x1ECF JUMP JUMPDEST SWAP1 DUP2 MSTORE PUSH1 0x20 ADD PUSH1 0x40 MLOAD DUP1 SWAP2 SUB SWAP1 KECCAK256 PUSH1 0x2 ADD SLOAD PUSH1 0x0 SUB PUSH2 0x31F JUMPI PUSH1 0x40 MLOAD PUSH3 0x461BCD PUSH1 0xE5 SHL DUP2 MSTORE PUSH1 0x4 ADD PUSH2 0x316 SWAP1 PUSH2 0x1EEB JUMP JUMPDEST PUSH1 0x40 MLOAD DUP1 SWAP2 SUB SWAP1 REVERT JUMPDEST PUSH1 0x3 PUSH1 0x1 DUP3 PUSH1 0x40 MLOAD PUSH2 0x331 SWAP2 SWAP1 PUSH2 0x1ECF JUMP JUMPDEST SWAP1 DUP2 MSTORE PUSH1 0x40 MLOAD SWAP1 DUP2 SWAP1 SUB PUSH1 0x20 ADD SWAP1 KECCAK256 PUSH1 0x3 ADD SLOAD PUSH1 0xFF AND PUSH1 0x8 DUP2 GT ISZERO PUSH2 0x358 JUMPI PUSH2 0x358 PUSH2 0x1BC7 JUMP JUMPDEST EQ ISZERO DUP1 ISZERO PUSH2 0x39D JUMPI POP PUSH1 0x7 PUSH1 0x1 DUP3 PUSH1 0x40 MLOAD PUSH2 0x373 SWAP2 SWAP1 PUSH2 0x1ECF JUMP JUMPDEST SWAP1 DUP2 MSTORE PUSH1 0x40 MLOAD SWAP1 DUP2 SWAP1 SUB PUSH1 0x20 ADD SWAP1 KECCAK256 PUSH1 0x3 ADD SLOAD PUSH1 0xFF AND PUSH1 0x8 DUP2 GT ISZERO PUSH2 0x39A JUMPI PUSH2 0x39A PUSH2 0x1BC7 JUMP JUMPDEST EQ ISZERO JUMPDEST PUSH2 0x3B9 JUMPI PUSH1 0x40 MLOAD PUSH3 0x461BCD PUSH1 0xE5 SHL DUP2 MSTORE PUSH1 0x4 ADD PUSH2 0x316 SWAP1 PUSH2 0x1F1B JUMP JUMPDEST PUSH2 0x1C20 PUSH1 0x1 DUP3 PUSH1 0x40 MLOAD PUSH2 0x3CC SWAP2 SWAP1 PUSH2 0x1ECF JUMP JUMPDEST SWAP1 DUP2 MSTORE PUSH1 0x20 ADD PUSH1 0x40 MLOAD DUP1 SWAP2 SUB SWAP1 KECCAK256 PUSH1 0x2 ADD SLOAD PUSH2 0x3E8 SWAP2 SWAP1 PUSH2 0x1F61 JUMP JUMPDEST TIMESTAMP GT ISZERO PUSH2 0x496 JUMPI PUSH1 0x7 PUSH1 0x1 DUP3 PUSH1 0x40 MLOAD PUSH2 0x401 SWAP2 SWAP1 PUSH2 0x1ECF JUMP JUMPDEST SWAP1 DUP2 MSTORE PUSH1 0x40 MLOAD SWAP1 DUP2 SWAP1 SUB PUSH1 0x20 ADD SWAP1 KECCAK256 PUSH1 0x3 ADD DUP1 SLOAD PUSH1 0xFF NOT AND PUSH1 0x1 DUP4 PUSH1 0x8 DUP2 GT ISZERO PUSH2 0x42D JUMPI PUSH2 0x42D PUSH2 0x1BC7 JUMP JUMPDEST MUL OR SWAP1 SSTORE POP PUSH32 0x62D9213245D7F343A8A9B0CD8D1E8301CF9E14B17270DD869F6B3A3BB5DA6A80 DUP2 TIMESTAMP PUSH1 0x40 MLOAD PUSH2 0x463 SWAP3 SWAP2 SWAP1 PUSH2 0x1F7A JUMP JUMPDEST PUSH1 0x40 MLOAD DUP1 SWAP2 SUB SWAP1 LOG1 PUSH1 0x0 DUP1 MLOAD PUSH1 0x20 PUSH2 0x21B9 DUP4 CODECOPY DUP2 MLOAD SWAP2 MSTORE DUP2 PUSH1 0x7 TIMESTAMP PUSH1 0x40 MLOAD PUSH2 0x48D SWAP4 SWAP3 SWAP2 SWAP1 PUSH2 0x1F9C JUMP JUMPDEST PUSH1 0x40 MLOAD DUP1 SWAP2 SUB SWAP1 LOG1 JUMPDEST POP JUMP JUMPDEST DUP1 MLOAD PUSH1 0x20 DUP2 DUP4 ADD DUP2 ADD DUP1 MLOAD PUSH1 0x1 DUP3 MSTORE SWAP3 DUP3 ADD SWAP2 SWAP1 SWAP4 ADD KECCAK256 SWAP2 MSTORE DUP1 SLOAD DUP2 SWAP1 PUSH2 0x4BF SWAP1 PUSH2 0x1FCC JUMP JUMPDEST DUP1 PUSH1 0x1F ADD PUSH1 0x20 DUP1 SWAP2 DIV MUL PUSH1 0x20 ADD PUSH1 0x40 MLOAD SWAP1 DUP2 ADD PUSH1 0x40 MSTORE DUP1 SWAP3 SWAP2 SWAP1 DUP2 DUP2 MSTORE PUSH1 0x20 ADD DUP3 DUP1 SLOAD PUSH2 0x4EB SWAP1 PUSH2 0x1FCC JUMP JUMPDEST DUP1 ISZERO PUSH2 0x538 JUMPI DUP1 PUSH1 0x1F LT PUSH2 0x50D JUMPI PUSH2 0x100 DUP1 DUP4 SLOAD DIV MUL DUP4 MSTORE SWAP2 PUSH1 0x20 ADD SWAP2 PUSH2 0x538 JUMP JUMPDEST DUP3 ADD SWAP2 SWAP1 PUSH1 0x0 MSTORE PUSH1 0x20 PUSH1 0x0 KECCAK256 SWAP1 JUMPDEST DUP2 SLOAD DUP2 MSTORE SWAP1 PUSH1 0x1 ADD SWAP1 PUSH1 0x20 ADD DUP1 DUP4 GT PUSH2 0x51B JUMPI DUP3 SWAP1 SUB PUSH1 0x1F AND DUP3 ADD SWAP2 JUMPDEST POP POP POP PUSH1 0x1 DUP5 ADD SLOAD PUSH1 0x2 DUP6 ADD SLOAD PUSH1 0x3 DUP7 ADD SLOAD PUSH1 0x4 DUP8 ADD DUP1 SLOAD SWAP7 SWAP8 SWAP4 SWAP7 SWAP3 SWAP6 POP PUSH1 0xFF SWAP1 SWAP2 AND SWAP4 POP SWAP1 PUSH2 0x568 SWAP1 PUSH2 0x1FCC JUMP JUMPDEST DUP1 PUSH1 0x1F ADD PUSH1 0x20 DUP1 SWAP2 DIV MUL PUSH1 0x20 ADD PUSH1 0x40 MLOAD SWAP1 DUP2 ADD PUSH1 0x40 MSTORE DUP1 SWAP3 SWAP2 SWAP1 DUP2 DUP2 MSTORE PUSH1 0x20 ADD DUP3 DUP1 SLOAD PUSH2 0x594 SWAP1 PUSH2 0x1FCC JUMP JUMPDEST DUP1 ISZERO PUSH2 0x5E1 JUMPI DUP1 PUSH1 0x1F LT PUSH2 0x5B6 JUMPI PUSH2 0x100 DUP1 DUP4 SLOAD DIV MUL DUP4 MSTORE SWAP2 PUSH1 0x20 ADD SWAP2 PUSH2 0x5E1 JUMP JUMPDEST DUP3 ADD SWAP2 SWAP1 PUSH1 0x0 MSTORE PUSH1 0x20 PUSH1 0x0 KECCAK256 SWAP1 JUMPDEST DUP2 SLOAD DUP2 MSTORE SWAP1 PUSH1 0x1 ADD SWAP1 PUSH1 0x20 ADD DUP1 DUP4 GT PUSH2 0x5C4 JUMPI DUP3 SWAP1 SUB PUSH1 0x1F AND DUP3 ADD SWAP2 JUMPDEST POP POP POP POP PUSH1 0x5 DUP4 ADD SLOAD PUSH1 0x6 DUP5 ADD SLOAD PUSH1 0x7 DUP6 ADD DUP1 SLOAD SWAP5 SWAP6 SWAP3 SWAP5 PUSH1 0xFF SWAP1 SWAP3 AND SWAP4 POP SWAP1 PUSH2 0x60A SWAP1 PUSH2 0x1FCC JUMP JUMPDEST DUP1 PUSH1 0x1F ADD PUSH1 0x20 DUP1 SWAP2 DIV MUL PUSH1 0x20 ADD PUSH1 0x40 MLOAD SWAP1 DUP2 ADD PUSH1 0x40 MSTORE DUP1 SWAP3 SWAP2 SWAP1 DUP2 DUP2 MSTORE PUSH1 0x20 ADD DUP3 DUP1 SLOAD PUSH2 0x636 SWAP1 PUSH2 0x1FCC JUMP JUMPDEST DUP1 ISZERO PUSH2 0x683 JUMPI DUP1 PUSH1 0x1F LT PUSH2 0x658 JUMPI PUSH2 0x100 DUP1 DUP4 SLOAD DIV MUL DUP4 MSTORE SWAP2 PUSH1 0x20 ADD SWAP2 PUSH2 0x683 JUMP JUMPDEST DUP3 ADD SWAP2 SWAP1 PUSH1 0x0 MSTORE PUSH1 0x20 PUSH1 0x0 KECCAK256 SWAP1 JUMPDEST DUP2 SLOAD DUP2 MSTORE SWAP1 PUSH1 0x1 ADD SWAP1 PUSH1 0x20 ADD DUP1 DUP4 GT PUSH2 0x666 JUMPI DUP3 SWAP1 SUB PUSH1 0x1F AND DUP3 ADD SWAP2 JUMPDEST POP POP POP POP POP SWAP1 POP DUP9 JUMP JUMPDEST PUSH2 0x695 PUSH2 0x1995 JUMP JUMPDEST PUSH1 0x1 DUP2 PUSH1 0x40 MLOAD PUSH2 0x6A5 SWAP2 SWAP1 PUSH2 0x1ECF JUMP JUMPDEST SWAP1 DUP2 MSTORE PUSH1 0x20 ADD PUSH1 0x40 MLOAD DUP1 SWAP2 SUB SWAP1 KECCAK256 PUSH1 0x2 ADD SLOAD PUSH1 0x0 SUB PUSH2 0x6D6 JUMPI PUSH1 0x40 MLOAD PUSH3 0x461BCD PUSH1 0xE5 SHL DUP2 MSTORE PUSH1 0x4 ADD PUSH2 0x316 SWAP1 PUSH2 0x1EEB JUMP JUMPDEST PUSH1 0x2 PUSH1 0x1 DUP3 PUSH1 0x40 MLOAD PUSH2 0x6E8 SWAP2 SWAP1 PUSH2 0x1ECF JUMP JUMPDEST SWAP1 DUP2 MSTORE PUSH1 0x40 MLOAD SWAP1 DUP2 SWAP1 SUB PUSH1 0x20 ADD SWAP1 KECCAK256 PUSH1 0x3 ADD SLOAD PUSH1 0xFF AND PUSH1 0x8 DUP2 GT ISZERO PUSH2 0x70F JUMPI PUSH2 0x70F PUSH2 0x1BC7 JUMP JUMPDEST EQ PUSH2 0x753 JUMPI PUSH1 0x40 MLOAD PUSH3 0x461BCD PUSH1 0xE5 SHL DUP2 MSTORE PUSH1 0x20 PUSH1 0x4 DUP3 ADD MSTORE PUSH1 0x14 PUSH1 0x24 DUP3 ADD MSTORE PUSH20 0x14185E5B595B9D081B9BDD081C9958D95A5D9959 PUSH1 0x62 SHL PUSH1 0x44 DUP3 ADD MSTORE PUSH1 0x64 ADD PUSH2 0x316 JUMP JUMPDEST PUSH1 0x3 PUSH1 0x1 DUP3 PUSH1 0x40 MLOAD PUSH2 0x765 SWAP2 SWAP1 PUSH2 0x1ECF JUMP JUMPDEST SWAP1 DUP2 MSTORE PUSH1 0x40 MLOAD SWAP1 DUP2 SWAP1 SUB PUSH1 0x20 ADD SWAP1 KECCAK256 PUSH1 0x3 ADD DUP1 SLOAD PUSH1 0xFF NOT AND PUSH1 0x1 DUP4 PUSH1 0x8 DUP2 GT ISZERO PUSH2 0x791 JUMPI PUSH2 0x791 PUSH2 0x1BC7 JUMP JUMPDEST MUL OR SWAP1 SSTORE POP PUSH32 0x6E47DD1008415E2C3F9E85C9164E9132873741BD195491F6489F1FF732FDF899 DUP2 TIMESTAMP PUSH1 0x40 MLOAD PUSH2 0x7C7 SWAP3 SWAP2 SWAP1 PUSH2 0x1F7A JUMP JUMPDEST PUSH1 0x40 MLOAD DUP1 SWAP2 SUB SWAP1 LOG1 PUSH1 0x0 DUP1 MLOAD PUSH1 0x20 PUSH2 0x21B9 DUP4 CODECOPY DUP2 MLOAD SWAP2 MSTORE DUP2 PUSH1 0x3 TIMESTAMP PUSH1 0x40 MLOAD PUSH2 0x48D SWAP4 SWAP3 SWAP2 SWAP1 PUSH2 0x1F9C JUMP JUMPDEST PUSH2 0x7F9 PUSH2 0x1995 JUMP JUMPDEST PUSH1 0x3 DUP3 PUSH1 0x40 MLOAD PUSH2 0x809 SWAP2 SWAP1 PUSH2 0x1ECF JUMP JUMPDEST SWAP1 DUP2 MSTORE PUSH1 0x40 MLOAD SWAP1 DUP2 SWAP1 SUB PUSH1 0x20 ADD SWAP1 KECCAK256 SLOAD PUSH1 0xFF AND ISZERO PUSH2 0x869 JUMPI PUSH1 0x40 MLOAD PUSH3 0x461BCD PUSH1 0xE5 SHL DUP2 MSTORE PUSH1 0x20 PUSH1 0x4 DUP3 ADD MSTORE PUSH1 0x1B PUSH1 0x24 DUP3 ADD MSTORE PUSH32 0x43726564656E7469616C7320616C72656164792064656C657465640000000000 PUSH1 0x44 DUP3 ADD MSTORE PUSH1 0x64 ADD PUSH2 0x316 JUMP JUMPDEST PUSH1 0x1 PUSH1 0x3 DUP4 PUSH1 0x40 MLOAD PUSH2 0x87B SWAP2 SWAP1 PUSH2 0x1ECF JUMP JUMPDEST SWAP1 DUP2 MSTORE PUSH1 0x40 MLOAD SWAP1 DUP2 SWAP1 SUB PUSH1 0x20 ADD DUP2 KECCAK256 DUP1 SLOAD SWAP3 ISZERO ISZERO PUSH1 0xFF NOT SWAP1 SWAP4 AND SWAP3 SWAP1 SWAP3 OR SWAP1 SWAP2 SSTORE PUSH1 0x1 SWAP1 PUSH2 0x8AA SWAP1 DUP4 SWAP1 PUSH2 0x1ECF JUMP JUMPDEST SWAP1 DUP2 MSTORE PUSH1 0x20 ADD PUSH1 0x40 MLOAD DUP1 SWAP2 SUB SWAP1 KECCAK256 PUSH1 0x2 ADD SLOAD PUSH1 0x0 EQ PUSH2 0x8F8 JUMPI PUSH1 0x1 DUP1 DUP3 PUSH1 0x40 MLOAD PUSH2 0x8D4 SWAP2 SWAP1 PUSH2 0x1ECF JUMP JUMPDEST SWAP1 DUP2 MSTORE PUSH1 0x40 MLOAD SWAP1 DUP2 SWAP1 SUB PUSH1 0x20 ADD SWAP1 KECCAK256 PUSH1 0x6 ADD DUP1 SLOAD SWAP2 ISZERO ISZERO PUSH1 0xFF NOT SWAP1 SWAP3 AND SWAP2 SWAP1 SWAP2 OR SWAP1 SSTORE JUMPDEST DUP2 PUSH1 0x40 MLOAD PUSH2 0x906 SWAP2 SWAP1 PUSH2 0x1ECF JUMP JUMPDEST PUSH1 0x40 MLOAD DUP1 SWAP2 SUB SWAP1 KECCAK256 PUSH32 0x218A20882ACE47E67A141F2FBDAA0ECA135FEBE4A2E813CC17427621BA1DD83A TIMESTAMP DUP4 PUSH1 0x40 MLOAD PUSH2 0x93F SWAP3 SWAP2 SWAP1 PUSH2 0x2006 JUMP JUMPDEST PUSH1 0x40 MLOAD DUP1 SWAP2 SUB SWAP1 LOG2 POP POP JUMP JUMPDEST PUSH2 0x953 PUSH2 0x1995 JUMP JUMPDEST PUSH2 0x95D PUSH1 0x0 PUSH2 0x19EF JUMP JUMPDEST JUMP JUMPDEST PUSH1 0x60 PUSH1 0x0 PUSH1 0x2 DUP4 PUSH1 0x40 MLOAD PUSH2 0x973 SWAP2 SWAP1 PUSH2 0x1ECF JUMP JUMPDEST SWAP1 DUP2 MSTORE PUSH1 0x20 ADD PUSH1 0x40 MLOAD DUP1 SWAP2 SUB SWAP1 KECCAK256 DUP1 SLOAD DUP1 PUSH1 0x20 MUL PUSH1 0x20 ADD PUSH1 0x40 MLOAD SWAP1 DUP2 ADD PUSH1 0x40 MSTORE DUP1 SWAP3 SWAP2 SWAP1 DUP2 DUP2 MSTORE PUSH1 0x20 ADD PUSH1 0x0 SWAP1 JUMPDEST DUP3 DUP3 LT ISZERO PUSH2 0xA4D JUMPI DUP4 DUP3 SWAP1 PUSH1 0x0 MSTORE PUSH1 0x20 PUSH1 0x0 KECCAK256 ADD DUP1 SLOAD PUSH2 0x9C0 SWAP1 PUSH2 0x1FCC JUMP JUMPDEST DUP1 PUSH1 0x1F ADD PUSH1 0x20 DUP1 SWAP2 DIV MUL PUSH1 0x20 ADD PUSH1 0x40 MLOAD SWAP1 DUP2 ADD PUSH1 0x40 MSTORE DUP1 SWAP3 SWAP2 SWAP1 DUP2 DUP2 MSTORE PUSH1 0x20 ADD DUP3 DUP1 SLOAD PUSH2 0x9EC SWAP1 PUSH2 0x1FCC JUMP JUMPDEST DUP1 ISZERO PUSH2 0xA39 JUMPI DUP1 PUSH1 0x1F LT PUSH2 0xA0E JUMPI PUSH2 0x100 DUP1 DUP4 SLOAD DIV MUL DUP4 MSTORE SWAP2 PUSH1 0x20 ADD SWAP2 PUSH2 0xA39 JUMP JUMPDEST DUP3 ADD SWAP2 SWAP1 PUSH1 0x0 MSTORE PUSH1 0x20 PUSH1 0x0 KECCAK256 SWAP1 JUMPDEST DUP2 SLOAD DUP2 MSTORE SWAP1 PUSH1 0x1 ADD SWAP1 PUSH1 0x20 ADD DUP1 DUP4 GT PUSH2 0xA1C JUMPI DUP3 SWAP1 SUB PUSH1 0x1F AND DUP3 ADD SWAP2 JUMPDEST POP POP POP POP POP DUP2 MSTORE PUSH1 0x20 ADD SWAP1 PUSH1 0x1 ADD SWAP1 PUSH2 0x9A1 JUMP JUMPDEST POP POP POP POP SWAP1 POP PUSH1 0x0 DUP2 MLOAD PUSH8 0xFFFFFFFFFFFFFFFF DUP2 GT ISZERO PUSH2 0xA6F JUMPI PUSH2 0xA6F PUSH2 0x1A97 JUMP JUMPDEST PUSH1 0x40 MLOAD SWAP1 DUP1 DUP3 MSTORE DUP1 PUSH1 0x20 MUL PUSH1 0x20 ADD DUP3 ADD PUSH1 0x40 MSTORE DUP1 ISZERO PUSH2 0xAA8 JUMPI DUP2 PUSH1 0x20 ADD JUMPDEST PUSH2 0xA95 PUSH2 0x1A3F JUMP JUMPDEST DUP2 MSTORE PUSH1 0x20 ADD SWAP1 PUSH1 0x1 SWAP1 SUB SWAP1 DUP2 PUSH2 0xA8D JUMPI SWAP1 POP JUMPDEST POP SWAP1 POP PUSH1 0x0 JUMPDEST DUP3 MLOAD DUP2 LT ISZERO PUSH2 0xD44 JUMPI PUSH1 0x1 DUP4 DUP3 DUP2 MLOAD DUP2 LT PUSH2 0xACB JUMPI PUSH2 0xACB PUSH2 0x201F JUMP JUMPDEST PUSH1 0x20 MUL PUSH1 0x20 ADD ADD MLOAD PUSH1 0x40 MLOAD PUSH2 0xAE0 SWAP2 SWAP1 PUSH2 0x1ECF JUMP JUMPDEST SWAP1 DUP2 MSTORE PUSH1 0x20 ADD PUSH1 0x40 MLOAD DUP1 SWAP2 SUB SWAP1 KECCAK256 PUSH1 0x40 MLOAD DUP1 PUSH2 0x100 ADD PUSH1 0x40 MSTORE SWAP1 DUP2 PUSH1 0x0 DUP3 ADD DUP1 SLOAD PUSH2 0xB0A SWAP1 PUSH2 0x1FCC JUMP JUMPDEST DUP1 PUSH1 0x1F ADD PUSH1 0x20 DUP1 SWAP2 DIV MUL PUSH1 0x20 ADD PUSH1 0x40 MLOAD SWAP1 DUP2 ADD PUSH1 0x40 MSTORE DUP1 SWAP3 SWAP2 SWAP1 DUP2 DUP2 MSTORE PUSH1 0x20 ADD DUP3 DUP1 SLOAD PUSH2 0xB36 SWAP1 PUSH2 0x1FCC JUMP JUMPDEST DUP1 ISZERO PUSH2 0xB83 JUMPI DUP1 PUSH1 0x1F LT PUSH2 0xB58 JUMPI PUSH2 0x100 DUP1 DUP4 SLOAD DIV MUL DUP4 MSTORE SWAP2 PUSH1 0x20 ADD SWAP2 PUSH2 0xB83 JUMP JUMPDEST DUP3 ADD SWAP2 SWAP1 PUSH1 0x0 MSTORE PUSH1 0x20 PUSH1 0x0 KECCAK256 SWAP1 JUMPDEST DUP2 SLOAD DUP2 MSTORE SWAP1 PUSH1 0x1 ADD SWAP1 PUSH1 0x20 ADD DUP1 DUP4 GT PUSH2 0xB66 JUMPI DUP3 SWAP1 SUB PUSH1 0x1F AND DUP3 ADD SWAP2 JUMPDEST POP POP POP SWAP2 DUP4 MSTORE POP POP PUSH1 0x1 DUP3 ADD SLOAD PUSH1 0x20 DUP3 ADD MSTORE PUSH1 0x2 DUP3 ADD SLOAD PUSH1 0x40 DUP3 ADD MSTORE PUSH1 0x3 DUP3 ADD SLOAD PUSH1 0x60 SWAP1 SWAP2 ADD SWAP1 PUSH1 0xFF AND PUSH1 0x8 DUP2 GT ISZERO PUSH2 0xBBE JUMPI PUSH2 0xBBE PUSH2 0x1BC7 JUMP JUMPDEST PUSH1 0x8 DUP2 GT ISZERO PUSH2 0xBCF JUMPI PUSH2 0xBCF PUSH2 0x1BC7 JUMP JUMPDEST DUP2 MSTORE PUSH1 0x20 ADD PUSH1 0x4 DUP3 ADD DUP1 SLOAD PUSH2 0xBE3 SWAP1 PUSH2 0x1FCC JUMP JUMPDEST DUP1 PUSH1 0x1F ADD PUSH1 0x20 DUP1 SWAP2 DIV MUL PUSH1 0x20 ADD PUSH1 0x40 MLOAD SWAP1 DUP2 ADD PUSH1 0x40 MSTORE DUP1 SWAP3 SWAP2 SWAP1 DUP2 DUP2 MSTORE PUSH1 0x20 ADD DUP3 DUP1 SLOAD PUSH2 0xC0F SWAP1 PUSH2 0x1FCC JUMP JUMPDEST DUP1 ISZERO PUSH2 0xC5C JUMPI DUP1 PUSH1 0x1F LT PUSH2 0xC31 JUMPI PUSH2 0x100 DUP1 DUP4 SLOAD DIV MUL DUP4 MSTORE SWAP2 PUSH1 0x20 ADD SWAP2 PUSH2 0xC5C JUMP JUMPDEST DUP3 ADD SWAP2 SWAP1 PUSH1 0x0 MSTORE PUSH1 0x20 PUSH1 0x0 KECCAK256 SWAP1 JUMPDEST DUP2 SLOAD DUP2 MSTORE SWAP1 PUSH1 0x1 ADD SWAP1 PUSH1 0x20 ADD DUP1 DUP4 GT PUSH2 0xC3F JUMPI DUP3 SWAP1 SUB PUSH1 0x1F AND DUP3 ADD SWAP2 JUMPDEST POP POP POP SWAP2 DUP4 MSTORE POP POP PUSH1 0x5 DUP3 ADD SLOAD PUSH1 0x20 DUP3 ADD MSTORE PUSH1 0x6 DUP3 ADD SLOAD PUSH1 0xFF AND ISZERO ISZERO PUSH1 0x40 DUP3 ADD MSTORE PUSH1 0x7 DUP3 ADD DUP1 SLOAD PUSH1 0x60 SWAP1 SWAP3 ADD SWAP2 PUSH2 0xC92 SWAP1 PUSH2 0x1FCC JUMP JUMPDEST DUP1 PUSH1 0x1F ADD PUSH1 0x20 DUP1 SWAP2 DIV MUL PUSH1 0x20 ADD PUSH1 0x40 MLOAD SWAP1 DUP2 ADD PUSH1 0x40 MSTORE DUP1 SWAP3 SWAP2 SWAP1 DUP2 DUP2 MSTORE PUSH1 0x20 ADD DUP3 DUP1 SLOAD PUSH2 0xCBE SWAP1 PUSH2 0x1FCC JUMP JUMPDEST DUP1 ISZERO PUSH2 0xD0B JUMPI DUP1 PUSH1 0x1F LT PUSH2 0xCE0 JUMPI PUSH2 0x100 DUP1 DUP4 SLOAD DIV MUL DUP4 MSTORE SWAP2 PUSH1 0x20 ADD SWAP2 PUSH2 0xD0B JUMP JUMPDEST DUP3 ADD SWAP2 SWAP1 PUSH1 0x0 MSTORE PUSH1 0x20 PUSH1 0x0 KECCAK256 SWAP1 JUMPDEST DUP2 SLOAD DUP2 MSTORE SWAP1 PUSH1 0x1 ADD SWAP1 PUSH1 0x20 ADD DUP1 DUP4 GT PUSH2 0xCEE JUMPI DUP3 SWAP1 SUB PUSH1 0x1F AND DUP3 ADD SWAP2 JUMPDEST POP POP POP POP POP DUP2 MSTORE POP POP DUP3 DUP3 DUP2 MLOAD DUP2 LT PUSH2 0xD26 JUMPI PUSH2 0xD26 PUSH2 0x201F JUMP JUMPDEST PUSH1 0x20 MUL PUSH1 0x20 ADD ADD DUP2 SWAP1 MSTORE POP DUP1 DUP1 PUSH2 0xD3C SWAP1 PUSH2 0x2035 JUMP JUMPDEST SWAP2 POP POP PUSH2 0xAAE JUMP JUMPDEST POP SWAP4 SWAP3 POP POP POP JUMP JUMPDEST PUSH2 0xD54 PUSH2 0x1995 JUMP JUMPDEST PUSH1 0x1 DUP4 PUSH1 0x40 MLOAD PUSH2 0xD64 SWAP2 SWAP1 PUSH2 0x1ECF JUMP JUMPDEST SWAP1 DUP2 MSTORE PUSH1 0x20 ADD PUSH1 0x40 MLOAD DUP1 SWAP2 SUB SWAP1 KECCAK256 PUSH1 0x2 ADD SLOAD PUSH1 0x0 EQ PUSH2 0xDBE JUMPI PUSH1 0x40 MLOAD PUSH3 0x461BCD PUSH1 0xE5 SHL DUP2 MSTORE PUSH1 0x20 PUSH1 0x4 DUP3 ADD MSTORE PUSH1 0x16 PUSH1 0x24 DUP3 ADD MSTORE PUSH22 0x53657373696F6E20616C726561647920657869737473 PUSH1 0x50 SHL PUSH1 0x44 DUP3 ADD MSTORE PUSH1 0x64 ADD PUSH2 0x316 JUMP JUMPDEST PUSH1 0x3 DUP3 PUSH1 0x40 MLOAD PUSH2 0xDCE SWAP2 SWAP1 PUSH2 0x1ECF JUMP JUMPDEST SWAP1 DUP2 MSTORE PUSH1 0x40 MLOAD SWAP1 DUP2 SWAP1 SUB PUSH1 0x20 ADD SWAP1 KECCAK256 SLOAD PUSH1 0xFF AND ISZERO PUSH2 0xE2E JUMPI PUSH1 0x40 MLOAD PUSH3 0x461BCD PUSH1 0xE5 SHL DUP2 MSTORE PUSH1 0x20 PUSH1 0x4 DUP3 ADD MSTORE PUSH1 0x18 PUSH1 0x24 DUP3 ADD MSTORE PUSH32 0x43726564656E7469616C7320776572652064656C657465640000000000000000 PUSH1 0x44 DUP3 ADD MSTORE PUSH1 0x64 ADD PUSH2 0x316 JUMP JUMPDEST PUSH1 0x40 MLOAD DUP1 PUSH2 0x100 ADD PUSH1 0x40 MSTORE DUP1 DUP4 DUP2 MSTORE PUSH1 0x20 ADD DUP3 DUP2 MSTORE PUSH1 0x20 ADD TIMESTAMP DUP2 MSTORE PUSH1 0x20 ADD PUSH1 0x0 PUSH1 0x8 DUP2 GT ISZERO PUSH2 0xE5F JUMPI PUSH2 0xE5F PUSH2 0x1BC7 JUMP JUMPDEST DUP2 MSTORE PUSH1 0x20 ADD PUSH1 0x40 MLOAD DUP1 PUSH1 0x20 ADD PUSH1 0x40 MSTORE DUP1 PUSH1 0x0 DUP2 MSTORE POP DUP2 MSTORE PUSH1 0x20 ADD PUSH1 0x1 DUP2 MSTORE PUSH1 0x20 ADD PUSH1 0x0 ISZERO ISZERO DUP2 MSTORE PUSH1 0x20 ADD PUSH1 0x40 MLOAD DUP1 PUSH1 0x20 ADD PUSH1 0x40 MSTORE DUP1 PUSH1 0x0 DUP2 MSTORE POP DUP2 MSTORE POP PUSH1 0x1 DUP5 PUSH1 0x40 MLOAD PUSH2 0xEAC SWAP2 SWAP1 PUSH2 0x1ECF JUMP JUMPDEST SWAP1 DUP2 MSTORE PUSH1 0x40 MLOAD SWAP1 DUP2 SWAP1 SUB PUSH1 0x20 ADD SWAP1 KECCAK256 DUP2 MLOAD DUP2 SWAP1 PUSH2 0xEC9 SWAP1 DUP3 PUSH2 0x209D JUMP JUMPDEST POP PUSH1 0x20 DUP3 ADD MLOAD DUP2 PUSH1 0x1 ADD SSTORE PUSH1 0x40 DUP3 ADD MLOAD DUP2 PUSH1 0x2 ADD SSTORE PUSH1 0x60 DUP3 ADD MLOAD DUP2 PUSH1 0x3 ADD PUSH1 0x0 PUSH2 0x100 EXP DUP2 SLOAD DUP2 PUSH1 0xFF MUL NOT AND SWAP1 DUP4 PUSH1 0x8 DUP2 GT ISZERO PUSH2 0xF08 JUMPI PUSH2 0xF08 PUSH2 0x1BC7 JUMP JUMPDEST MUL OR SWAP1 SSTORE POP PUSH1 0x80 DUP3 ADD MLOAD PUSH1 0x4 DUP3 ADD SWAP1 PUSH2 0xF21 SWAP1 DUP3 PUSH2 0x209D JUMP JUMPDEST POP PUSH1 0xA0 DUP3 ADD MLOAD PUSH1 0x5 DUP3 ADD SSTORE PUSH1 0xC0 DUP3 ADD MLOAD PUSH1 0x6 DUP3 ADD DUP1 SLOAD PUSH1 0xFF NOT AND SWAP2 ISZERO ISZERO SWAP2 SWAP1 SWAP2 OR SWAP1 SSTORE PUSH1 0xE0 DUP3 ADD MLOAD PUSH1 0x7 DUP3 ADD SWAP1 PUSH2 0xF58 SWAP1 DUP3 PUSH2 0x209D JUMP JUMPDEST POP SWAP1 POP POP PUSH1 0x2 DUP3 PUSH1 0x40 MLOAD PUSH2 0xF6C SWAP2 SWAP1 PUSH2 0x1ECF JUMP JUMPDEST SWAP1 DUP2 MSTORE PUSH1 0x40 MLOAD PUSH1 0x20 SWAP2 DUP2 SWAP1 SUB DUP3 ADD SWAP1 KECCAK256 DUP1 SLOAD PUSH1 0x1 DUP2 ADD DUP3 SSTORE PUSH1 0x0 SWAP2 DUP3 MSTORE SWAP2 SWAP1 KECCAK256 ADD PUSH2 0xF97 DUP5 DUP3 PUSH2 0x209D JUMP JUMPDEST POP DUP2 PUSH1 0x40 MLOAD PUSH2 0xFA6 SWAP2 SWAP1 PUSH2 0x1ECF JUMP JUMPDEST PUSH1 0x40 MLOAD DUP1 SWAP2 SUB SWAP1 KECCAK256 PUSH32 0xC709B8E5BA9741F5FA4E2881570946FCF49A1F554F549FA7E1BBDA80CC2B2935 DUP5 DUP4 TIMESTAMP PUSH1 0x40 MLOAD PUSH2 0xFE1 SWAP4 SWAP3 SWAP2 SWAP1 PUSH2 0x215D JUMP JUMPDEST PUSH1 0x40 MLOAD DUP1 SWAP2 SUB SWAP1 LOG2 PUSH1 0x0 DUP1 MLOAD PUSH1 0x20 PUSH2 0x21B9 DUP4 CODECOPY DUP2 MLOAD SWAP2 MSTORE DUP4 PUSH1 0x0 TIMESTAMP PUSH1 0x40 MLOAD PUSH2 0x100B SWAP4 SWAP3 SWAP2 SWAP1 PUSH2 0x1F9C JUMP JUMPDEST PUSH1 0x40 MLOAD DUP1 SWAP2 SUB SWAP1 LOG1 POP POP POP JUMP JUMPDEST PUSH2 0x1020 PUSH2 0x1995 JUMP JUMPDEST PUSH1 0x1 DUP3 PUSH1 0x40 MLOAD PUSH2 0x1030 SWAP2 SWAP1 PUSH2 0x1ECF JUMP JUMPDEST SWAP1 DUP2 MSTORE PUSH1 0x20 ADD PUSH1 0x40 MLOAD DUP1 SWAP2 SUB SWAP1 KECCAK256 PUSH1 0x2 ADD SLOAD PUSH1 0x0 SUB PUSH2 0x1061 JUMPI PUSH1 0x40 MLOAD PUSH3 0x461BCD PUSH1 0xE5 SHL DUP2 MSTORE PUSH1 0x4 ADD PUSH2 0x316 SWAP1 PUSH2 0x1EEB JUMP JUMPDEST PUSH1 0x0 PUSH1 0x1 DUP4 PUSH1 0x40 MLOAD PUSH2 0x1073 SWAP2 SWAP1 PUSH2 0x1ECF JUMP JUMPDEST SWAP1 DUP2 MSTORE PUSH1 0x40 MLOAD SWAP1 DUP2 SWAP1 SUB PUSH1 0x20 ADD SWAP1 KECCAK256 PUSH1 0x3 ADD SLOAD PUSH1 0xFF AND PUSH1 0x8 DUP2 GT ISZERO PUSH2 0x109A JUMPI PUSH2 0x109A PUSH2 0x1BC7 JUMP JUMPDEST EQ PUSH2 0x10B7 JUMPI PUSH1 0x40 MLOAD PUSH3 0x461BCD PUSH1 0xE5 SHL DUP2 MSTORE PUSH1 0x4 ADD PUSH2 0x316 SWAP1 PUSH2 0x1F1B JUMP JUMPDEST PUSH1 0x1 DUP1 DUP4 PUSH1 0x40 MLOAD PUSH2 0x10C8 SWAP2 SWAP1 PUSH2 0x1ECF JUMP JUMPDEST SWAP1 DUP2 MSTORE PUSH1 0x40 MLOAD SWAP1 DUP2 SWAP1 SUB PUSH1 0x20 ADD SWAP1 KECCAK256 PUSH1 0x3 ADD DUP1 SLOAD PUSH1 0xFF NOT AND PUSH1 0x1 DUP4 PUSH1 0x8 DUP2 GT ISZERO PUSH2 0x10F4 JUMPI PUSH2 0x10F4 PUSH2 0x1BC7 JUMP JUMPDEST MUL OR SWAP1 SSTORE POP DUP1 PUSH1 0x1 DUP4 PUSH1 0x40 MLOAD PUSH2 0x110A SWAP2 SWAP1 PUSH2 0x1ECF JUMP JUMPDEST SWAP1 DUP2 MSTORE PUSH1 0x20 ADD PUSH1 0x40 MLOAD DUP1 SWAP2 SUB SWAP1 KECCAK256 PUSH1 0x1 ADD DUP2 SWAP1 SSTORE POP PUSH32 0xFF043471A8F9C8A5E337376F687415B9176D0E99B40B1B9E7B82FA922948A4E8 DUP3 DUP3 TIMESTAMP PUSH1 0x40 MLOAD PUSH2 0x1152 SWAP4 SWAP3 SWAP2 SWAP1 PUSH2 0x215D JUMP JUMPDEST PUSH1 0x40 MLOAD DUP1 SWAP2 SUB SWAP1 LOG1 PUSH1 0x0 DUP1 MLOAD PUSH1 0x20 PUSH2 0x21B9 DUP4 CODECOPY DUP2 MLOAD SWAP2 MSTORE DUP3 PUSH1 0x1 TIMESTAMP PUSH1 0x40 MLOAD PUSH2 0x117C SWAP4 SWAP3 SWAP2 SWAP1 PUSH2 0x1F9C JUMP JUMPDEST PUSH1 0x40 MLOAD DUP1 SWAP2 SUB SWAP1 LOG1 POP POP JUMP JUMPDEST PUSH2 0x1190 PUSH2 0x1995 JUMP JUMPDEST PUSH1 0x1 DUP3 PUSH1 0x40 MLOAD PUSH2 0x11A0 SWAP2 SWAP1 PUSH2 0x1ECF JUMP JUMPDEST SWAP1 DUP2 MSTORE PUSH1 0x20 ADD PUSH1 0x40 MLOAD DUP1 SWAP2 SUB SWAP1 KECCAK256 PUSH1 0x2 ADD SLOAD PUSH1 0x0 SUB PUSH2 0x11D1 JUMPI PUSH1 0x40 MLOAD PUSH3 0x461BCD PUSH1 0xE5 SHL DUP2 MSTORE PUSH1 0x4 ADD PUSH2 0x316 SWAP1 PUSH2 0x1EEB JUMP JUMPDEST PUSH1 0x3 PUSH1 0x1 DUP4 PUSH1 0x40 MLOAD PUSH2 0x11E3 SWAP2 SWAP1 PUSH2 0x1ECF JUMP JUMPDEST SWAP1 DUP2 MSTORE PUSH1 0x40 MLOAD SWAP1 DUP2 SWAP1 SUB PUSH1 0x20 ADD SWAP1 KECCAK256 PUSH1 0x3 ADD SLOAD PUSH1 0xFF AND PUSH1 0x8 DUP2 GT ISZERO PUSH2 0x120A JUMPI PUSH2 0x120A PUSH2 0x1BC7 JUMP JUMPDEST EQ ISZERO DUP1 ISZERO PUSH2 0x124F JUMPI POP PUSH1 0x6 PUSH1 0x1 DUP4 PUSH1 0x40 MLOAD PUSH2 0x1225 SWAP2 SWAP1 PUSH2 0x1ECF JUMP JUMPDEST SWAP1 DUP2 MSTORE PUSH1 0x40 MLOAD SWAP1 DUP2 SWAP1 SUB PUSH1 0x20 ADD SWAP1 KECCAK256 PUSH1 0x3 ADD SLOAD PUSH1 0xFF AND PUSH1 0x8 DUP2 GT ISZERO PUSH2 0x124C JUMPI PUSH2 0x124C PUSH2 0x1BC7 JUMP JUMPDEST EQ ISZERO JUMPDEST PUSH2 0x126B JUMPI PUSH1 0x40 MLOAD PUSH3 0x461BCD PUSH1 0xE5 SHL DUP2 MSTORE PUSH1 0x4 ADD PUSH2 0x316 SWAP1 PUSH2 0x1F1B JUMP JUMPDEST PUSH1 0x6 PUSH1 0x1 DUP4 PUSH1 0x40 MLOAD PUSH2 0x127D SWAP2 SWAP1 PUSH2 0x1ECF JUMP JUMPDEST SWAP1 DUP2 MSTORE PUSH1 0x40 MLOAD SWAP1 DUP2 SWAP1 SUB PUSH1 0x20 ADD SWAP1 KECCAK256 PUSH1 0x3 ADD DUP1 SLOAD PUSH1 0xFF NOT AND PUSH1 0x1 DUP4 PUSH1 0x8 DUP2 GT ISZERO PUSH2 0x12A9 JUMPI PUSH2 0x12A9 PUSH2 0x1BC7 JUMP JUMPDEST MUL OR SWAP1 SSTORE POP DUP1 PUSH1 0x1 DUP4 PUSH1 0x40 MLOAD PUSH2 0x12BF SWAP2 SWAP1 PUSH2 0x1ECF JUMP JUMPDEST SWAP1 DUP2 MSTORE PUSH1 0x20 ADD PUSH1 0x40 MLOAD DUP1 SWAP2 SUB SWAP1 KECCAK256 PUSH1 0x7 ADD SWAP1 DUP2 PUSH2 0x12DC SWAP2 SWAP1 PUSH2 0x209D JUMP JUMPDEST POP PUSH32 0xDCAFCE6F0F9C04F4486711366C9DC747004327466D3BCC4B9AFE0B8C20D514F1 DUP3 DUP3 TIMESTAMP PUSH1 0x40 MLOAD PUSH2 0x1310 SWAP4 SWAP3 SWAP2 SWAP1 PUSH2 0x2182 JUMP JUMPDEST PUSH1 0x40 MLOAD DUP1 SWAP2 SUB SWAP1 LOG1 PUSH1 0x0 DUP1 MLOAD PUSH1 0x20 PUSH2 0x21B9 DUP4 CODECOPY DUP2 MLOAD SWAP2 MSTORE DUP3 PUSH1 0x6 TIMESTAMP PUSH1 0x40 MLOAD PUSH2 0x117C SWAP4 SWAP3 SWAP2 SWAP1 PUSH2 0x1F9C JUMP JUMPDEST PUSH1 0x0 PUSH1 0x3 DUP3 PUSH1 0x40 MLOAD PUSH2 0x134C SWAP2 SWAP1 PUSH2 0x1ECF JUMP JUMPDEST SWAP1 DUP2 MSTORE PUSH1 0x40 MLOAD SWAP1 DUP2 SWAP1 SUB PUSH1 0x20 ADD SWAP1 KECCAK256 SLOAD PUSH1 0xFF AND SWAP3 SWAP2 POP POP JUMP JUMPDEST PUSH2 0x136D PUSH2 0x1995 JUMP JUMPDEST PUSH1 0x1 DUP3 PUSH1 0x40 MLOAD PUSH2 0x137D SWAP2 SWAP1 PUSH2 0x1ECF JUMP JUMPDEST SWAP1 DUP2 MSTORE PUSH1 0x20 ADD PUSH1 0x40 MLOAD DUP1 SWAP2 SUB SWAP1 KECCAK256 PUSH1 0x2 ADD SLOAD PUSH1 0x0 SUB PUSH2 0x13AE JUMPI PUSH1 0x40 MLOAD PUSH3 0x461BCD PUSH1 0xE5 SHL DUP2 MSTORE PUSH1 0x4 ADD PUSH2 0x316 SWAP1 PUSH2 0x1EEB JUMP JUMPDEST PUSH1 0x1 DUP1 DUP4 PUSH1 0x40 MLOAD PUSH2 0x13BF SWAP2 SWAP1 PUSH2 0x1ECF JUMP JUMPDEST SWAP1 DUP2 MSTORE PUSH1 0x40 MLOAD SWAP1 DUP2 SWAP1 SUB PUSH1 0x20 ADD SWAP1 KECCAK256 PUSH1 0x3 ADD SLOAD PUSH1 0xFF AND PUSH1 0x8 DUP2 GT ISZERO PUSH2 0x13E6 JUMPI PUSH2 0x13E6 PUSH2 0x1BC7 JUMP JUMPDEST EQ DUP1 PUSH2 0x1428 JUMPI POP PUSH1 0x0 PUSH1 0x1 DUP4 PUSH1 0x40 MLOAD PUSH2 0x13FF SWAP2 SWAP1 PUSH2 0x1ECF JUMP JUMPDEST SWAP1 DUP2 MSTORE PUSH1 0x40 MLOAD SWAP1 DUP2 SWAP1 SUB PUSH1 0x20 ADD SWAP1 KECCAK256 PUSH1 0x3 ADD SLOAD PUSH1 0xFF AND PUSH1 0x8 DUP2 GT ISZERO PUSH2 0x1426 JUMPI PUSH2 0x1426 PUSH2 0x1BC7 JUMP JUMPDEST EQ JUMPDEST PUSH2 0x1444 JUMPI PUSH1 0x40 MLOAD PUSH3 0x461BCD PUSH1 0xE5 SHL DUP2 MSTORE PUSH1 0x4 ADD PUSH2 0x316 SWAP1 PUSH2 0x1F1B JUMP JUMPDEST PUSH1 0x0 PUSH1 0x1 DUP4 PUSH1 0x40 MLOAD PUSH2 0x1456 SWAP2 SWAP1 PUSH2 0x1ECF JUMP JUMPDEST SWAP1 DUP2 MSTORE PUSH1 0x40 MLOAD SWAP1 DUP2 SWAP1 SUB PUSH1 0x20 ADD SWAP1 KECCAK256 PUSH1 0x3 ADD SLOAD PUSH1 0xFF AND PUSH1 0x8 DUP2 GT ISZERO PUSH2 0x147D JUMPI PUSH2 0x147D PUSH2 0x1BC7 JUMP JUMPDEST SUB PUSH2 0x14F4 JUMPI PUSH2 0x708 PUSH1 0x1 DUP4 PUSH1 0x40 MLOAD PUSH2 0x1495 SWAP2 SWAP1 PUSH2 0x1ECF JUMP JUMPDEST SWAP1 DUP2 MSTORE PUSH1 0x20 ADD PUSH1 0x40 MLOAD DUP1 SWAP2 SUB SWAP1 KECCAK256 PUSH1 0x2 ADD SLOAD PUSH2 0x14B1 SWAP2 SWAP1 PUSH2 0x1F61 JUMP JUMPDEST TIMESTAMP GT ISZERO PUSH2 0x14F4 JUMPI PUSH1 0x40 MLOAD PUSH3 0x461BCD PUSH1 0xE5 SHL DUP2 MSTORE PUSH1 0x20 PUSH1 0x4 DUP3 ADD MSTORE PUSH1 0x11 PUSH1 0x24 DUP3 ADD MSTORE PUSH17 0x14185E5B595B9D081D1A5B5959081BDD5D PUSH1 0x7A SHL PUSH1 0x44 DUP3 ADD MSTORE PUSH1 0x64 ADD PUSH2 0x316 JUMP JUMPDEST PUSH1 0x2 PUSH1 0x1 DUP4 PUSH1 0x40 MLOAD PUSH2 0x1506 SWAP2 SWAP1 PUSH2 0x1ECF JUMP JUMPDEST SWAP1 DUP2 MSTORE PUSH1 0x40 MLOAD SWAP1 DUP2 SWAP1 SUB PUSH1 0x20 ADD SWAP1 KECCAK256 PUSH1 0x3 ADD DUP1 SLOAD PUSH1 0xFF NOT AND PUSH1 0x1 DUP4 PUSH1 0x8 DUP2 GT ISZERO PUSH2 0x1532 JUMPI PUSH2 0x1532 PUSH2 0x1BC7 JUMP JUMPDEST MUL OR SWAP1 SSTORE POP DUP1 PUSH1 0x1 DUP4 PUSH1 0x40 MLOAD PUSH2 0x1548 SWAP2 SWAP1 PUSH2 0x1ECF JUMP JUMPDEST SWAP1 DUP2 MSTORE PUSH1 0x20 ADD PUSH1 0x40 MLOAD DUP1 SWAP2 SUB SWAP1 KECCAK256 PUSH1 0x4 ADD SWAP1 DUP2 PUSH2 0x1565 SWAP2 SWAP1 PUSH2 0x209D JUMP JUMPDEST POP PUSH32 0x62B47E599C0AFB346366CBB9D2F035A42E9FD5B792F5BA2714932673476668E8 DUP3 DUP3 TIMESTAMP PUSH1 0x40 MLOAD PUSH2 0x1599 SWAP4 SWAP3 SWAP2 SWAP1 PUSH2 0x2182 JUMP JUMPDEST PUSH1 0x40 MLOAD DUP1 SWAP2 SUB SWAP1 LOG1 PUSH1 0x0 DUP1 MLOAD PUSH1 0x20 PUSH2 0x21B9 DUP4 CODECOPY DUP2 MLOAD SWAP2 MSTORE DUP3 PUSH1 0x2 TIMESTAMP PUSH1 0x40 MLOAD PUSH2 0x117C SWAP4 SWAP3 SWAP2 SWAP1 PUSH2 0x1F9C JUMP JUMPDEST PUSH2 0x15CB PUSH2 0x1A3F JUMP JUMPDEST PUSH1 0x1 DUP3 PUSH1 0x40 MLOAD PUSH2 0x15DB SWAP2 SWAP1 PUSH2 0x1ECF JUMP JUMPDEST SWAP1 DUP2 MSTORE PUSH1 0x20 ADD PUSH1 0x40 MLOAD DUP1 SWAP2 SUB SWAP1 KECCAK256 PUSH1 0x2 ADD SLOAD PUSH1 0x0 SUB PUSH2 0x160C JUMPI PUSH1 0x40 MLOAD PUSH3 0x461BCD PUSH1 0xE5 SHL DUP2 MSTORE PUSH1 0x4 ADD PUSH2 0x316 SWAP1 PUSH2 0x1EEB JUMP JUMPDEST PUSH1 0x1 DUP3 PUSH1 0x40 MLOAD PUSH2 0x161C SWAP2 SWAP1 PUSH2 0x1ECF JUMP JUMPDEST SWAP1 DUP2 MSTORE PUSH1 0x20 ADD PUSH1 0x40 MLOAD DUP1 SWAP2 SUB SWAP1 KECCAK256 PUSH1 0x40 MLOAD DUP1 PUSH2 0x100 ADD PUSH1 0x40 MSTORE SWAP1 DUP2 PUSH1 0x0 DUP3 ADD DUP1 SLOAD PUSH2 0x1646 SWAP1 PUSH2 0x1FCC JUMP JUMPDEST DUP1 PUSH1 0x1F ADD PUSH1 0x20 DUP1 SWAP2 DIV MUL PUSH1 0x20 ADD PUSH1 0x40 MLOAD SWAP1 DUP2 ADD PUSH1 0x40 MSTORE DUP1 SWAP3 SWAP2 SWAP1 DUP2 DUP2 MSTORE PUSH1 0x20 ADD DUP3 DUP1 SLOAD PUSH2 0x1672 SWAP1 PUSH2 0x1FCC JUMP JUMPDEST DUP1 ISZERO PUSH2 0x16BF JUMPI DUP1 PUSH1 0x1F LT PUSH2 0x1694 JUMPI PUSH2 0x100 DUP1 DUP4 SLOAD DIV MUL DUP4 MSTORE SWAP2 PUSH1 0x20 ADD SWAP2 PUSH2 0x16BF JUMP JUMPDEST DUP3 ADD SWAP2 SWAP1 PUSH1 0x0 MSTORE PUSH1 0x20 PUSH1 0x0 KECCAK256 SWAP1 JUMPDEST DUP2 SLOAD DUP2 MSTORE SWAP1 PUSH1 0x1 ADD SWAP1 PUSH1 0x20 ADD DUP1 DUP4 GT PUSH2 0x16A2 JUMPI DUP3 SWAP1 SUB PUSH1 0x1F AND DUP3 ADD SWAP2 JUMPDEST POP POP POP SWAP2 DUP4 MSTORE POP POP PUSH1 0x1 DUP3 ADD SLOAD PUSH1 0x20 DUP3 ADD MSTORE PUSH1 0x2 DUP3 ADD SLOAD PUSH1 0x40 DUP3 ADD MSTORE PUSH1 0x3 DUP3 ADD SLOAD PUSH1 0x60 SWAP1 SWAP2 ADD SWAP1 PUSH1 0xFF AND PUSH1 0x8 DUP2 GT ISZERO PUSH2 0x16FA JUMPI PUSH2 0x16FA PUSH2 0x1BC7 JUMP JUMPDEST PUSH1 0x8 DUP2 GT ISZERO PUSH2 0x170B JUMPI PUSH2 0x170B PUSH2 0x1BC7 JUMP JUMPDEST DUP2 MSTORE PUSH1 0x20 ADD PUSH1 0x4 DUP3 ADD DUP1 SLOAD PUSH2 0x171F SWAP1 PUSH2 0x1FCC JUMP JUMPDEST DUP1 PUSH1 0x1F ADD PUSH1 0x20 DUP1 SWAP2 DIV MUL PUSH1 0x20 ADD PUSH1 0x40 MLOAD SWAP1 DUP2 ADD PUSH1 0x40 MSTORE DUP1 SWAP3 SWAP2 SWAP1 DUP2 DUP2 MSTORE PUSH1 0x20 ADD DUP3 DUP1 SLOAD PUSH2 0x174B SWAP1 PUSH2 0x1FCC JUMP JUMPDEST DUP1 ISZERO PUSH2 0x1798 JUMPI DUP1 PUSH1 0x1F LT PUSH2 0x176D JUMPI PUSH2 0x100 DUP1 DUP4 SLOAD DIV MUL DUP4 MSTORE SWAP2 PUSH1 0x20 ADD SWAP2 PUSH2 0x1798 JUMP JUMPDEST DUP3 ADD SWAP2 SWAP1 PUSH1 0x0 MSTORE PUSH1 0x20 PUSH1 0x0 KECCAK256 SWAP1 JUMPDEST DUP2 SLOAD DUP2 MSTORE SWAP1 PUSH1 0x1 ADD SWAP1 PUSH1 0x20 ADD DUP1 DUP4 GT PUSH2 0x177B JUMPI DUP3 SWAP1 SUB PUSH1 0x1F AND DUP3 ADD SWAP2 JUMPDEST POP POP POP SWAP2 DUP4 MSTORE POP POP PUSH1 0x5 DUP3 ADD SLOAD PUSH1 0x20 DUP3 ADD MSTORE PUSH1 0x6 DUP3 ADD SLOAD PUSH1 0xFF AND ISZERO ISZERO PUSH1 0x40 DUP3 ADD MSTORE PUSH1 0x7 DUP3 ADD DUP1 SLOAD PUSH1 0x60 SWAP1 SWAP3 ADD SWAP2 PUSH2 0x17CE SWAP1 PUSH2 0x1FCC JUMP JUMPDEST DUP1 PUSH1 0x1F ADD PUSH1 0x20 DUP1 SWAP2 DIV MUL PUSH1 0x20 ADD PUSH1 0x40 MLOAD SWAP1 DUP2 ADD PUSH1 0x40 MSTORE DUP1 SWAP3 SWAP2 SWAP1 DUP2 DUP2 MSTORE PUSH1 0x20 ADD DUP3 DUP1 SLOAD PUSH2 0x17FA SWAP1 PUSH2 0x1FCC JUMP JUMPDEST DUP1 ISZERO PUSH2 0x1847 JUMPI DUP1 PUSH1 0x1F LT PUSH2 0x181C JUMPI PUSH2 0x100 DUP1 DUP4 SLOAD DIV MUL DUP4 MSTORE SWAP2 PUSH1 0x20 ADD SWAP2 PUSH2 0x1847 JUMP JUMPDEST DUP3 ADD SWAP2 SWAP1 PUSH1 0x0 MSTORE PUSH1 0x20 PUSH1 0x0 KECCAK256 SWAP1 JUMPDEST DUP2 SLOAD DUP2 MSTORE SWAP1 PUSH1 0x1 ADD SWAP1 PUSH1 0x20 ADD DUP1 DUP4 GT PUSH2 0x182A JUMPI DUP3 SWAP1 SUB PUSH1 0x1F AND DUP3 ADD SWAP2 JUMPDEST POP POP POP POP POP DUP2 MSTORE POP POP SWAP1 POP SWAP2 SWAP1 POP JUMP JUMPDEST DUP2 MLOAD PUSH1 0x20 DUP2 DUP5 ADD DUP2 ADD DUP1 MLOAD PUSH1 0x2 DUP3 MSTORE SWAP3 DUP3 ADD SWAP2 DUP6 ADD SWAP2 SWAP1 SWAP2 KECCAK256 SWAP2 SWAP1 MSTORE DUP1 SLOAD DUP3 SWAP1 DUP2 LT PUSH2 0x1882 JUMPI PUSH1 0x0 DUP1 REVERT JUMPDEST SWAP1 PUSH1 0x0 MSTORE PUSH1 0x20 PUSH1 0x0 KECCAK256 ADD PUSH1 0x0 SWAP2 POP SWAP2 POP POP DUP1 SLOAD PUSH2 0x189E SWAP1 PUSH2 0x1FCC JUMP JUMPDEST DUP1 PUSH1 0x1F ADD PUSH1 0x20 DUP1 SWAP2 DIV MUL PUSH1 0x20 ADD PUSH1 0x40 MLOAD SWAP1 DUP2 ADD PUSH1 0x40 MSTORE DUP1 SWAP3 SWAP2 SWAP1 DUP2 DUP2 MSTORE PUSH1 0x20 ADD DUP3 DUP1 SLOAD PUSH2 0x18CA SWAP1 PUSH2 0x1FCC JUMP JUMPDEST DUP1 ISZERO PUSH2 0x1917 JUMPI DUP1 PUSH1 0x1F LT PUSH2 0x18EC JUMPI PUSH2 0x100 DUP1 DUP4 SLOAD DIV MUL DUP4 MSTORE SWAP2 PUSH1 0x20 ADD SWAP2 PUSH2 0x1917 JUMP JUMPDEST DUP3 ADD SWAP2 SWAP1 PUSH1 0x0 MSTORE PUSH1 0x20 PUSH1 0x0 KECCAK256 SWAP1 JUMPDEST DUP2 SLOAD DUP2 MSTORE SWAP1 PUSH1 0x1 ADD SWAP1 PUSH1 0x20 ADD DUP1 DUP4 GT PUSH2 0x18FA JUMPI DUP3 SWAP1 SUB PUSH1 0x1F AND DUP3 ADD SWAP2 JUMPDEST POP POP POP POP POP DUP2 JUMP JUMPDEST PUSH2 0x1927 PUSH2 0x1995 JUMP JUMPDEST PUSH1 0x1 PUSH1 0x1 PUSH1 0xA0 SHL SUB DUP2 AND PUSH2 0x198C JUMPI PUSH1 0x40 MLOAD PUSH3 0x461BCD PUSH1 0xE5 SHL DUP2 MSTORE PUSH1 0x20 PUSH1 0x4 DUP3 ADD MSTORE PUSH1 0x26 PUSH1 0x24 DUP3 ADD MSTORE PUSH32 0x4F776E61626C653A206E6577206F776E657220697320746865207A65726F2061 PUSH1 0x44 DUP3 ADD MSTORE PUSH6 0x646472657373 PUSH1 0xD0 SHL PUSH1 0x64 DUP3 ADD MSTORE PUSH1 0x84 ADD PUSH2 0x316 JUMP JUMPDEST PUSH2 0x496 DUP2 PUSH2 0x19EF JUMP JUMPDEST PUSH1 0x0 SLOAD PUSH1 0x1 PUSH1 0x1 PUSH1 0xA0 SHL SUB AND CALLER EQ PUSH2 0x95D JUMPI PUSH1 0x40 MLOAD PUSH3 0x461BCD PUSH1 0xE5 SHL DUP2 MSTORE PUSH1 0x20 PUSH1 0x4 DUP3 ADD DUP2 SWAP1 MSTORE PUSH1 0x24 DUP3 ADD MSTORE PUSH32 0x4F776E61626C653A2063616C6C6572206973206E6F7420746865206F776E6572 PUSH1 0x44 DUP3 ADD MSTORE PUSH1 0x64 ADD PUSH2 0x316 JUMP JUMPDEST PUSH1 0x0 DUP1 SLOAD PUSH1 0x1 PUSH1 0x1 PUSH1 0xA0 SHL SUB DUP4 DUP2 AND PUSH1 0x1 PUSH1 0x1 PUSH1 0xA0 SHL SUB NOT DUP4 AND DUP2 OR DUP5 SSTORE PUSH1 0x40 MLOAD SWAP2 SWAP1 SWAP3 AND SWAP3 DUP4 SWAP2 PUSH32 0x8BE0079C531659141344CD1FD0A4F28419497F9722A3DAAFE3B4186F6B6457E0 SWAP2 SWAP1 LOG3 POP POP JUMP JUMPDEST PUSH1 0x40 MLOAD DUP1 PUSH2 0x100 ADD PUSH1 0x40 MSTORE DUP1 PUSH1 0x60 DUP2 MSTORE PUSH1 0x20 ADD PUSH1 0x0 DUP2 MSTORE PUSH1 0x20 ADD PUSH1 0x0 DUP2 MSTORE PUSH1 0x20 ADD PUSH1 0x0 PUSH1 0x8 DUP2 GT ISZERO PUSH2 0x1A73 JUMPI PUSH2 0x1A73 PUSH2 0x1BC7 JUMP JUMPDEST DUP2 MSTORE PUSH1 0x20 ADD PUSH1 0x60 DUP2 MSTORE PUSH1 0x20 ADD PUSH1 0x0 DUP2 MSTORE PUSH1 0x20 ADD PUSH1 0x0 ISZERO ISZERO DUP2 MSTORE PUSH1 0x20 ADD PUSH1 0x60 DUP2 MSTORE POP SWAP1 JUMP JUMPDEST PUSH4 0x4E487B71 PUSH1 0xE0 SHL PUSH1 0x0 MSTORE PUSH1 0x41 PUSH1 0x4 MSTORE PUSH1 0x24 PUSH1 0x0 REVERT JUMPDEST PUSH1 0x0 DUP3 PUSH1 0x1F DUP4 ADD SLT PUSH2 0x1ABE JUMPI PUSH1 0x0 DUP1 REVERT JUMPDEST DUP2 CALLDATALOAD PUSH8 0xFFFFFFFFFFFFFFFF DUP1 DUP3 GT ISZERO PUSH2 0x1AD9 JUMPI PUSH2 0x1AD9 PUSH2 0x1A97 JUMP JUMPDEST PUSH1 0x40 MLOAD PUSH1 0x1F DUP4 ADD PUSH1 0x1F NOT SWAP1 DUP2 AND PUSH1 0x3F ADD AND DUP2 ADD SWAP1 DUP3 DUP3 GT DUP2 DUP4 LT OR ISZERO PUSH2 0x1B01 JUMPI PUSH2 0x1B01 PUSH2 0x1A97 JUMP JUMPDEST DUP2 PUSH1 0x40 MSTORE DUP4 DUP2 MSTORE DUP7 PUSH1 0x20 DUP6 DUP9 ADD ADD GT ISZERO PUSH2 0x1B1A JUMPI PUSH1 0x0 DUP1 REVERT JUMPDEST DUP4 PUSH1 0x20 DUP8 ADD PUSH1 0x20 DUP4 ADD CALLDATACOPY PUSH1 0x0 PUSH1 0x20 DUP6 DUP4 ADD ADD MSTORE DUP1 SWAP5 POP POP POP POP POP SWAP3 SWAP2 POP POP JUMP JUMPDEST PUSH1 0x0 PUSH1 0x20 DUP3 DUP5 SUB SLT ISZERO PUSH2 0x1B4C JUMPI PUSH1 0x0 DUP1 REVERT JUMPDEST DUP2 CALLDATALOAD PUSH8 0xFFFFFFFFFFFFFFFF DUP2 GT ISZERO PUSH2 0x1B63 JUMPI PUSH1 0x0 DUP1 REVERT JUMPDEST PUSH2 0x1B6F DUP5 DUP3 DUP6 ADD PUSH2 0x1AAD JUMP JUMPDEST SWAP5 SWAP4 POP POP POP POP JUMP JUMPDEST PUSH1 0x0 JUMPDEST DUP4 DUP2 LT ISZERO PUSH2 0x1B92 JUMPI DUP2 DUP2 ADD MLOAD DUP4 DUP3 ADD MSTORE PUSH1 0x20 ADD PUSH2 0x1B7A JUMP JUMPDEST POP POP PUSH1 0x0 SWAP2 ADD MSTORE JUMP JUMPDEST PUSH1 0x0 DUP2 MLOAD DUP1 DUP5 MSTORE PUSH2 0x1BB3 DUP2 PUSH1 0x20 DUP7 ADD PUSH1 0x20 DUP7 ADD PUSH2 0x1B77 JUMP JUMPDEST PUSH1 0x1F ADD PUSH1 0x1F NOT AND SWAP3 SWAP1 SWAP3 ADD PUSH1 0x20 ADD SWAP3 SWAP2 POP POP JUMP JUMPDEST PUSH4 0x4E487B71 PUSH1 0xE0 SHL PUSH1 0x0 MSTORE PUSH1 0x21 PUSH1 0x4 MSTORE PUSH1 0x24 PUSH1 0x0 REVERT JUMPDEST PUSH1 0x9 DUP2 LT PUSH2 0x1BFB JUMPI PUSH4 0x4E487B71 PUSH1 0xE0 SHL PUSH1 0x0 MSTORE PUSH1 0x21 PUSH1 0x4 MSTORE PUSH1 0x24 PUSH1 0x0 REVERT JUMPDEST SWAP1 MSTORE JUMP JUMPDEST PUSH1 0x0 PUSH2 0x100 DUP1 DUP4 MSTORE PUSH2 0x1C13 DUP2 DUP5 ADD DUP13 PUSH2 0x1B9B JUMP JUMPDEST SWAP1 POP DUP10 PUSH1 0x20 DUP5 ADD MSTORE DUP9 PUSH1 0x40 DUP5 ADD MSTORE PUSH2 0x1C2E PUSH1 0x60 DUP5 ADD DUP10 PUSH2 0x1BDD JUMP JUMPDEST DUP3 DUP2 SUB PUSH1 0x80 DUP5 ADD MSTORE PUSH2 0x1C40 DUP2 DUP9 PUSH2 0x1B9B JUMP JUMPDEST SWAP1 POP DUP6 PUSH1 0xA0 DUP5 ADD MSTORE DUP5 ISZERO ISZERO PUSH1 0xC0 DUP5 ADD MSTORE DUP3 DUP2 SUB PUSH1 0xE0 DUP5 ADD MSTORE PUSH2 0x1C62 DUP2 DUP6 PUSH2 0x1B9B JUMP JUMPDEST SWAP12 SWAP11 POP POP POP POP POP POP POP POP POP POP POP JUMP JUMPDEST PUSH1 0x0 DUP1 PUSH1 0x40 DUP4 DUP6 SUB SLT ISZERO PUSH2 0x1C84 JUMPI PUSH1 0x0 DUP1 REVERT JUMPDEST DUP3 CALLDATALOAD PUSH8 0xFFFFFFFFFFFFFFFF DUP1 DUP3 GT ISZERO PUSH2 0x1C9C JUMPI PUSH1 0x0 DUP1 REVERT JUMPDEST PUSH2 0x1CA8 DUP7 DUP4 DUP8 ADD PUSH2 0x1AAD JUMP JUMPDEST SWAP4 POP PUSH1 0x20 DUP6 ADD CALLDATALOAD SWAP2 POP DUP1 DUP3 GT ISZERO PUSH2 0x1CBE JUMPI PUSH1 0x0 DUP1 REVERT JUMPDEST POP PUSH2 0x1CCB DUP6 DUP3 DUP7 ADD PUSH2 0x1AAD JUMP JUMPDEST SWAP2 POP POP SWAP3 POP SWAP3 SWAP1 POP JUMP JUMPDEST PUSH1 0x0 PUSH2 0x100 DUP3 MLOAD DUP2 DUP6 MSTORE PUSH2 0x1CEB DUP3 DUP7 ADD DUP3 PUSH2 0x1B9B JUMP JUMPDEST SWAP2 POP POP PUSH1 0x20 DUP4 ADD MLOAD PUSH1 0x20 DUP6 ADD MSTORE PUSH1 0x40 DUP4 ADD MLOAD PUSH1 0x40 DUP6 ADD MSTORE PUSH1 0x60 DUP4 ADD MLOAD PUSH2 0x1D14 PUSH1 0x60 DUP7 ADD DUP3 PUSH2 0x1BDD JUMP JUMPDEST POP PUSH1 0x80 DUP4 ADD MLOAD DUP5 DUP3 SUB PUSH1 0x80 DUP7 ADD MSTORE PUSH2 0x1D2C DUP3 DUP3 PUSH2 0x1B9B JUMP JUMPDEST SWAP2 POP POP PUSH1 0xA0 DUP4 ADD MLOAD PUSH1 0xA0 DUP6 ADD MSTORE PUSH1 0xC0 DUP4 ADD MLOAD ISZERO ISZERO PUSH1 0xC0 DUP6 ADD MSTORE PUSH1 0xE0 DUP4 ADD MLOAD DUP5 DUP3 SUB PUSH1 0xE0 DUP7 ADD MSTORE PUSH2 0x1D5C DUP3 DUP3 PUSH2 0x1B9B JUMP JUMPDEST SWAP6 SWAP5 POP POP POP POP POP JUMP JUMPDEST PUSH1 0x0 PUSH1 0x20 DUP1 DUP4 ADD DUP2 DUP5 MSTORE DUP1 DUP6 MLOAD DUP1 DUP4 MSTORE PUSH1 0x40 DUP7 ADD SWAP2 POP PUSH1 0x40 DUP2 PUSH1 0x5 SHL DUP8 ADD ADD SWAP3 POP DUP4 DUP8 ADD PUSH1 0x0 JUMPDEST DUP3 DUP2 LT ISZERO PUSH2 0x1DBA JUMPI PUSH1 0x3F NOT DUP9 DUP7 SUB ADD DUP5 MSTORE PUSH2 0x1DA8 DUP6 DUP4 MLOAD PUSH2 0x1CD5 JUMP JUMPDEST SWAP5 POP SWAP3 DUP6 ADD SWAP3 SWAP1 DUP6 ADD SWAP1 PUSH1 0x1 ADD PUSH2 0x1D8C JUMP JUMPDEST POP SWAP3 SWAP8 SWAP7 POP POP POP POP POP POP POP JUMP JUMPDEST PUSH1 0x0 DUP1 PUSH1 0x0 PUSH1 0x60 DUP5 DUP7 SUB SLT ISZERO PUSH2 0x1DDC JUMPI PUSH1 0x0 DUP1 REVERT JUMPDEST DUP4 CALLDATALOAD PUSH8 0xFFFFFFFFFFFFFFFF DUP1 DUP3 GT ISZERO PUSH2 0x1DF4 JUMPI PUSH1 0x0 DUP1 REVERT JUMPDEST PUSH2 0x1E00 DUP8 DUP4 DUP9 ADD PUSH2 0x1AAD JUMP JUMPDEST SWAP5 POP PUSH1 0x20 DUP7 ADD CALLDATALOAD SWAP2 POP DUP1 DUP3 GT ISZERO PUSH2 0x1E16 JUMPI PUSH1 0x0 DUP1 REVERT JUMPDEST POP PUSH2 0x1E23 DUP7 DUP3 DUP8 ADD PUSH2 0x1AAD JUMP JUMPDEST SWAP3 POP POP PUSH1 0x40 DUP5 ADD CALLDATALOAD SWAP1 POP SWAP3 POP SWAP3 POP SWAP3 JUMP JUMPDEST PUSH1 0x0 DUP1 PUSH1 0x40 DUP4 DUP6 SUB SLT ISZERO PUSH2 0x1E47 JUMPI PUSH1 0x0 DUP1 REVERT JUMPDEST DUP3 CALLDATALOAD PUSH8 0xFFFFFFFFFFFFFFFF DUP2 GT ISZERO PUSH2 0x1E5E JUMPI PUSH1 0x0 DUP1 REVERT JUMPDEST PUSH2 0x1E6A DUP6 DUP3 DUP7 ADD PUSH2 0x1AAD JUMP JUMPDEST SWAP6 PUSH1 0x20 SWAP5 SWAP1 SWAP5 ADD CALLDATALOAD SWAP5 POP POP POP POP JUMP JUMPDEST PUSH1 0x20 DUP2 MSTORE PUSH1 0x0 PUSH2 0x1E8C PUSH1 0x20 DUP4 ADD DUP5 PUSH2 0x1CD5 JUMP JUMPDEST SWAP4 SWAP3 POP POP POP JUMP JUMPDEST PUSH1 0x20 DUP2 MSTORE PUSH1 0x0 PUSH2 0x1E8C PUSH1 0x20 DUP4 ADD DUP5 PUSH2 0x1B9B JUMP JUMPDEST PUSH1 0x0 PUSH1 0x20 DUP3 DUP5 SUB SLT ISZERO PUSH2 0x1EB8 JUMPI PUSH1 0x0 DUP1 REVERT JUMPDEST DUP2 CALLDATALOAD PUSH1 0x1 PUSH1 0x1 PUSH1 0xA0 SHL SUB DUP2 AND DUP2 EQ PUSH2 0x1E8C JUMPI PUSH1 0x0 DUP1 REVERT JUMPDEST PUSH1 0x0 DUP3 MLOAD PUSH2 0x1EE1 DUP2 DUP5 PUSH1 0x20 DUP8 ADD PUSH2 0x1B77 JUMP JUMPDEST SWAP2 SWAP1 SWAP2 ADD SWAP3 SWAP2 POP POP JUMP JUMPDEST PUSH1 0x20 DUP1 DUP3 MSTORE PUSH1 0x16 SWAP1 DUP3 ADD MSTORE PUSH22 0x14D95CDCDA5BDB88191BD95CC81B9BDD08195E1A5CDD PUSH1 0x52 SHL PUSH1 0x40 DUP3 ADD MSTORE PUSH1 0x60 ADD SWAP1 JUMP JUMPDEST PUSH1 0x20 DUP1 DUP3 MSTORE PUSH1 0x16 SWAP1 DUP3 ADD MSTORE PUSH22 0x496E76616C69642073657373696F6E20737461747573 PUSH1 0x50 SHL PUSH1 0x40 DUP3 ADD MSTORE PUSH1 0x60 ADD SWAP1 JUMP JUMPDEST PUSH4 0x4E487B71 PUSH1 0xE0 SHL PUSH1 0x0 MSTORE PUSH1 0x11 PUSH1 0x4 MSTORE PUSH1 0x24 PUSH1 0x0 REVERT JUMPDEST DUP1 DUP3 ADD DUP1 DUP3 GT ISZERO PUSH2 0x1F74 JUMPI PUSH2 0x1F74 PUSH2 0x1F4B JUMP JUMPDEST SWAP3 SWAP2 POP POP JUMP JUMPDEST PUSH1 0x40 DUP2 MSTORE PUSH1 0x0 PUSH2 0x1F8D PUSH1 0x40 DUP4 ADD DUP6 PUSH2 0x1B9B JUMP JUMPDEST SWAP1 POP DUP3 PUSH1 0x20 DUP4 ADD MSTORE SWAP4 SWAP3 POP POP POP JUMP JUMPDEST PUSH1 0x60 DUP2 MSTORE PUSH1 0x0 PUSH2 0x1FAF PUSH1 0x60 DUP4 ADD DUP7 PUSH2 0x1B9B JUMP JUMPDEST SWAP1 POP PUSH2 0x1FBE PUSH1 0x20 DUP4 ADD DUP6 PUSH2 0x1BDD JUMP JUMPDEST DUP3 PUSH1 0x40 DUP4 ADD MSTORE SWAP5 SWAP4 POP POP POP POP JUMP JUMPDEST PUSH1 0x1 DUP2 DUP2 SHR SWAP1 DUP3 AND DUP1 PUSH2 0x1FE0 JUMPI PUSH1 0x7F DUP3 AND SWAP2 POP JUMPDEST PUSH1 0x20 DUP3 LT DUP2 SUB PUSH2 0x2000 JUMPI PUSH4 0x4E487B71 PUSH1 0xE0 SHL PUSH1 0x0 MSTORE PUSH1 0x22 PUSH1 0x4 MSTORE PUSH1 0x24 PUSH1 0x0 REVERT JUMPDEST POP SWAP2 SWAP1 POP JUMP JUMPDEST DUP3 DUP2 MSTORE PUSH1 0x40 PUSH1 0x20 DUP3 ADD MSTORE PUSH1 0x0 PUSH2 0x1B6F PUSH1 0x40 DUP4 ADD DUP5 PUSH2 0x1B9B JUMP JUMPDEST PUSH4 0x4E487B71 PUSH1 0xE0 SHL PUSH1 0x0 MSTORE PUSH1 0x32 PUSH1 0x4 MSTORE PUSH1 0x24 PUSH1 0x0 REVERT JUMPDEST PUSH1 0x0 PUSH1 0x1 DUP3 ADD PUSH2 0x2047 JUMPI PUSH2 0x2047 PUSH2 0x1F4B JUMP JUMPDEST POP PUSH1 0x1 ADD SWAP1 JUMP JUMPDEST PUSH1 0x1F DUP3 GT ISZERO PUSH2 0x2098 JUMPI PUSH1 0x0 DUP2 DUP2 MSTORE PUSH1 0x20 DUP2 KECCAK256 PUSH1 0x1F DUP6 ADD PUSH1 0x5 SHR DUP2 ADD PUSH1 0x20 DUP7 LT ISZERO PUSH2 0x2075 JUMPI POP DUP1 JUMPDEST PUSH1 0x1F DUP6 ADD PUSH1 0x5 SHR DUP3 ADD SWAP2 POP JUMPDEST DUP2 DUP2 LT ISZERO PUSH2 0x2094 JUMPI DUP3 DUP2 SSTORE PUSH1 0x1 ADD PUSH2 0x2081 JUMP JUMPDEST POP POP POP JUMPDEST POP POP POP JUMP JUMPDEST DUP2 MLOAD PUSH8 0xFFFFFFFFFFFFFFFF DUP2 GT ISZERO PUSH2 0x20B7 JUMPI PUSH2 0x20B7 PUSH2 0x1A97 JUMP JUMPDEST PUSH2 0x20CB DUP2 PUSH2 0x20C5 DUP5 SLOAD PUSH2 0x1FCC JUMP JUMPDEST DUP5 PUSH2 0x204E JUMP JUMPDEST PUSH1 0x20 DUP1 PUSH1 0x1F DUP4 GT PUSH1 0x1 DUP2 EQ PUSH2 0x2100 JUMPI PUSH1 0x0 DUP5 ISZERO PUSH2 0x20E8 JUMPI POP DUP6 DUP4 ADD MLOAD JUMPDEST PUSH1 0x0 NOT PUSH1 0x3 DUP7 SWAP1 SHL SHR NOT AND PUSH1 0x1 DUP6 SWAP1 SHL OR DUP6 SSTORE PUSH2 0x2094 JUMP JUMPDEST PUSH1 0x0 DUP6 DUP2 MSTORE PUSH1 0x20 DUP2 KECCAK256 PUSH1 0x1F NOT DUP7 AND SWAP2 JUMPDEST DUP3 DUP2 LT ISZERO PUSH2 0x212F JUMPI DUP9 DUP7 ADD MLOAD DUP3 SSTORE SWAP5 DUP5 ADD SWAP5 PUSH1 0x1 SWAP1 SWAP2 ADD SWAP1 DUP5 ADD PUSH2 0x2110 JUMP JUMPDEST POP DUP6 DUP3 LT ISZERO PUSH2 0x214D JUMPI DUP8 DUP6 ADD MLOAD PUSH1 0x0 NOT PUSH1 0x3 DUP9 SWAP1 SHL PUSH1 0xF8 AND SHR NOT AND DUP2 SSTORE JUMPDEST POP POP POP POP POP PUSH1 0x1 SWAP1 DUP2 SHL ADD SWAP1 SSTORE POP JUMP JUMPDEST PUSH1 0x60 DUP2 MSTORE PUSH1 0x0 PUSH2 0x2170 PUSH1 0x60 DUP4 ADD DUP7 PUSH2 0x1B9B JUMP JUMPDEST PUSH1 0x20 DUP4 ADD SWAP5 SWAP1 SWAP5 MSTORE POP PUSH1 0x40 ADD MSTORE SWAP2 SWAP1 POP JUMP JUMPDEST PUSH1 0x60 DUP2 MSTORE PUSH1 0x0 PUSH2 0x2195 PUSH1 0x60 DUP4 ADD DUP7 PUSH2 0x1B9B JUMP JUMPDEST DUP3 DUP2 SUB PUSH1 0x20 DUP5 ADD MSTORE PUSH2 0x21A7 DUP2 DUP7 PUSH2 0x1B9B JUMP JUMPDEST SWAP2 POP POP DUP3 PUSH1 0x40 DUP4 ADD MSTORE SWAP5 SWAP4 POP POP POP POP JUMP INVALID POP PUSH29 0xF7F6910C530DEBF1DE94473292DDA388B3ADE82EB12887945D58D62CF2 BLOCKHASH LOG2 PUSH5 0x6970667358 0x22 SLT KECCAK256 PUSH0 0xB9 0xE6 MUL TIMESTAMP BLOCKHASH BYTE 0xB2 0xE1 0xBB 0xDB LOG4 EXTCODEHASH GAS PUSH30 0x51BB2EAB7F7602757CF827517A92E463F964736F6C634300081400330000 "},"methodIdentifiers":{"PAYMENT_TIMEOUT()":"218c4da0","SESSION_TIMEOUT()":"c083ad99","abandonSession(string,string)":"bf56354f","checkSessionTimeout(string)":"239ce95c","completeSession(string)":"549ffdd3","createSession(string,string,uint256)":"a24d2203","deleteCredentials(string,string)":"5dd1c512","deletedCredentials(string)":"c33bd9fb","filingHistory(string,uint256)":"df2a93ae","getFilingHistory(string)":"9ccc81f9","getSession(string)":"cf702636","initiatePayment(string,uint256)":"bbead320","isCredentialDeleted(string)":"bfe5d127","owner()":"8da5cb5b","recordPayment(string,string)":"c526cba1","renounceOwnership()":"715018a6","sessions(string)":"4f4ba348","transferOwnership(address)":"f2fde38b"}}}}}